{
  "contractName": "MyExchange",
  "abi": [
    {
      "constant": false,
      "inputs": [],
      "name": "renounceOwnership",
      "outputs": [],
      "payable": false,
      "stateMutability": "nonpayable",
      "type": "function",
      "signature": "0x715018a6"
    },
    {
      "constant": true,
      "inputs": [],
      "name": "owner",
      "outputs": [
        {
          "name": "",
          "type": "address"
        }
      ],
      "payable": false,
      "stateMutability": "view",
      "type": "function",
      "signature": "0x8da5cb5b"
    },
    {
      "constant": true,
      "inputs": [],
      "name": "isOwner",
      "outputs": [
        {
          "name": "",
          "type": "bool"
        }
      ],
      "payable": false,
      "stateMutability": "view",
      "type": "function",
      "signature": "0x8f32d59b"
    },
    {
      "constant": true,
      "inputs": [
        {
          "name": "",
          "type": "address"
        },
        {
          "name": "",
          "type": "address"
        }
      ],
      "name": "userBalanceForToken",
      "outputs": [
        {
          "name": "",
          "type": "uint256"
        }
      ],
      "payable": false,
      "stateMutability": "view",
      "type": "function",
      "signature": "0xb009e4d3"
    },
    {
      "constant": false,
      "inputs": [
        {
          "name": "newOwner",
          "type": "address"
        }
      ],
      "name": "transferOwnership",
      "outputs": [],
      "payable": false,
      "stateMutability": "nonpayable",
      "type": "function",
      "signature": "0xf2fde38b"
    },
    {
      "inputs": [],
      "payable": false,
      "stateMutability": "nonpayable",
      "type": "constructor",
      "signature": "constructor"
    },
    {
      "anonymous": false,
      "inputs": [
        {
          "indexed": false,
          "name": "_token",
          "type": "address"
        },
        {
          "indexed": false,
          "name": "_user",
          "type": "address"
        },
        {
          "indexed": false,
          "name": "_amount",
          "type": "uint256"
        }
      ],
      "name": "LogDepositToken",
      "type": "event",
      "signature": "0xb024cc5591038c18f7e2348d474092b453a32212dd1ebcc0370c4ac2e42cce43"
    },
    {
      "anonymous": false,
      "inputs": [
        {
          "indexed": false,
          "name": "_token",
          "type": "address"
        },
        {
          "indexed": false,
          "name": "_user",
          "type": "address"
        },
        {
          "indexed": false,
          "name": "_amount",
          "type": "uint256"
        }
      ],
      "name": "LogWithdrawToken",
      "type": "event",
      "signature": "0x46ae78bc7b198b8b534ca0070d125569ac5f955976841c4343223079f3abf0de"
    },
    {
      "anonymous": false,
      "inputs": [
        {
          "indexed": true,
          "name": "previousOwner",
          "type": "address"
        },
        {
          "indexed": true,
          "name": "newOwner",
          "type": "address"
        }
      ],
      "name": "OwnershipTransferred",
      "type": "event",
      "signature": "0x8be0079c531659141344cd1fd0a4f28419497f9722a3daafe3b4186f6b6457e0"
    },
    {
      "constant": false,
      "inputs": [],
      "name": "deposit",
      "outputs": [],
      "payable": true,
      "stateMutability": "payable",
      "type": "function",
      "signature": "0xd0e30db0"
    },
    {
      "constant": false,
      "inputs": [
        {
          "name": "_amount",
          "type": "uint256"
        }
      ],
      "name": "withdraw",
      "outputs": [],
      "payable": false,
      "stateMutability": "nonpayable",
      "type": "function",
      "signature": "0x2e1a7d4d"
    },
    {
      "constant": false,
      "inputs": [
        {
          "name": "_token",
          "type": "address"
        },
        {
          "name": "_amount",
          "type": "uint256"
        }
      ],
      "name": "depositToken",
      "outputs": [],
      "payable": false,
      "stateMutability": "nonpayable",
      "type": "function",
      "signature": "0x338b5dea"
    },
    {
      "constant": false,
      "inputs": [
        {
          "name": "_token",
          "type": "address"
        },
        {
          "name": "_amount",
          "type": "uint256"
        }
      ],
      "name": "withdrawToken",
      "outputs": [],
      "payable": false,
      "stateMutability": "nonpayable",
      "type": "function",
      "signature": "0x9e281a98"
    },
    {
      "constant": true,
      "inputs": [
        {
          "name": "_token",
          "type": "address"
        }
      ],
      "name": "balanceOf",
      "outputs": [
        {
          "name": "",
          "type": "uint256"
        }
      ],
      "payable": false,
      "stateMutability": "view",
      "type": "function",
      "signature": "0x70a08231"
    },
    {
      "constant": true,
      "inputs": [
        {
          "name": "_token",
          "type": "address"
        }
      ],
      "name": "getUserBalanceForToken",
      "outputs": [
        {
          "name": "",
          "type": "uint256"
        }
      ],
      "payable": false,
      "stateMutability": "view",
      "type": "function",
      "signature": "0xaadcc9c6"
    }
  ],
  "bytecode": "0x608060405234801561001057600080fd5b50336000806101000a81548173ffffffffffffffffffffffffffffffffffffffff021916908373ffffffffffffffffffffffffffffffffffffffff1602179055506000809054906101000a900473ffffffffffffffffffffffffffffffffffffffff1673ffffffffffffffffffffffffffffffffffffffff16600073ffffffffffffffffffffffffffffffffffffffff167f8be0079c531659141344cd1fd0a4f28419497f9722a3daafe3b4186f6b6457e060405160405180910390a36112fa806100dc6000396000f3fe6080604052600436106100b9576000357c0100000000000000000000000000000000000000000000000000000000900480638f32d59b116100815780638f32d59b146102275780639e281a9814610256578063aadcc9c6146102b1578063b009e4d314610316578063d0e30db01461039b578063f2fde38b146103a5576100b9565b80632e1a7d4d146100be578063338b5dea146100f957806370a0823114610154578063715018a6146101b95780638da5cb5b146101d0575b600080fd5b3480156100ca57600080fd5b506100f7600480360360208110156100e157600080fd5b81019080803590602001909291905050506103f6565b005b34801561010557600080fd5b506101526004803603604081101561011c57600080fd5b81019080803573ffffffffffffffffffffffffffffffffffffffff1690602001909291908035906020019092919050505061067a565b005b34801561016057600080fd5b506101a36004803603602081101561017757600080fd5b81019080803573ffffffffffffffffffffffffffffffffffffffff169060200190929190505050610985565b6040518082815260200191505060405180910390f35b3480156101c557600080fd5b506101ce610a62565b005b3480156101dc57600080fd5b506101e5610b34565b604051808273ffffffffffffffffffffffffffffffffffffffff1673ffffffffffffffffffffffffffffffffffffffff16815260200191505060405180910390f35b34801561023357600080fd5b5061023c610b5d565b604051808215151515815260200191505060405180910390f35b34801561026257600080fd5b506102af6004803603604081101561027957600080fd5b81019080803573ffffffffffffffffffffffffffffffffffffffff16906020019092919080359060200190929190505050610bb4565b005b3480156102bd57600080fd5b50610300600480360360208110156102d457600080fd5b81019080803573ffffffffffffffffffffffffffffffffffffffff169060200190929190505050610f16565b6040518082815260200191505060405180910390f35b34801561032257600080fd5b506103856004803603604081101561033957600080fd5b81019080803573ffffffffffffffffffffffffffffffffffffffff169060200190929190803573ffffffffffffffffffffffffffffffffffffffff169060200190929190505050610f9c565b6040518082815260200191505060405180910390f35b6103a3610fc1565b005b3480156103b157600080fd5b506103f4600480360360208110156103c857600080fd5b81019080803573ffffffffffffffffffffffffffffffffffffffff169060200190929190505050611172565b005b80600160008073ffffffffffffffffffffffffffffffffffffffff1673ffffffffffffffffffffffffffffffffffffffff16815260200190815260200160002060003373ffffffffffffffffffffffffffffffffffffffff1673ffffffffffffffffffffffffffffffffffffffff168152602001908152602001600020541015151561048157600080fd5b61051081600160008073ffffffffffffffffffffffffffffffffffffffff1673ffffffffffffffffffffffffffffffffffffffff16815260200190815260200160002060003373ffffffffffffffffffffffffffffffffffffffff1673ffffffffffffffffffffffffffffffffffffffff1681526020019081526020016000205461119190919063ffffffff16565b600160008073ffffffffffffffffffffffffffffffffffffffff1673ffffffffffffffffffffffffffffffffffffffff16815260200190815260200160002060003373ffffffffffffffffffffffffffffffffffffffff1673ffffffffffffffffffffffffffffffffffffffff168152602001908152602001600020819055503373ffffffffffffffffffffffffffffffffffffffff166108fc829081150290604051600060405180830381858888f193505050501580156105d6573d6000803e3d6000fd5b507f46ae78bc7b198b8b534ca0070d125569ac5f955976841c4343223079f3abf0de60003383604051808473ffffffffffffffffffffffffffffffffffffffff1673ffffffffffffffffffffffffffffffffffffffff1681526020018373ffffffffffffffffffffffffffffffffffffffff1673ffffffffffffffffffffffffffffffffffffffff168152602001828152602001935050505060405180910390a150565b600073ffffffffffffffffffffffffffffffffffffffff168273ffffffffffffffffffffffffffffffffffffffff16141515156106b657600080fd5b8173ffffffffffffffffffffffffffffffffffffffff166323b872dd3330846040518463ffffffff167c0100000000000000000000000000000000000000000000000000000000028152600401808473ffffffffffffffffffffffffffffffffffffffff1673ffffffffffffffffffffffffffffffffffffffff1681526020018373ffffffffffffffffffffffffffffffffffffffff1673ffffffffffffffffffffffffffffffffffffffff1681526020018281526020019350505050602060405180830381600087803b15801561078d57600080fd5b505af11580156107a1573d6000803e3d6000fd5b505050506040513d60208110156107b757600080fd5b810190808051906020019092919050505015156107d357600080fd5b61086281600160008573ffffffffffffffffffffffffffffffffffffffff1673ffffffffffffffffffffffffffffffffffffffff16815260200190815260200160002060003373ffffffffffffffffffffffffffffffffffffffff1673ffffffffffffffffffffffffffffffffffffffff168152602001908152602001600020546111b390919063ffffffff16565b600160008473ffffffffffffffffffffffffffffffffffffffff1673ffffffffffffffffffffffffffffffffffffffff16815260200190815260200160002060003373ffffffffffffffffffffffffffffffffffffffff1673ffffffffffffffffffffffffffffffffffffffff168152602001908152602001600020819055507fb024cc5591038c18f7e2348d474092b453a32212dd1ebcc0370c4ac2e42cce43823383604051808473ffffffffffffffffffffffffffffffffffffffff1673ffffffffffffffffffffffffffffffffffffffff1681526020018373ffffffffffffffffffffffffffffffffffffffff1673ffffffffffffffffffffffffffffffffffffffff168152602001828152602001935050505060405180910390a15050565b60008173ffffffffffffffffffffffffffffffffffffffff166370a08231336040518263ffffffff167c0100000000000000000000000000000000000000000000000000000000028152600401808273ffffffffffffffffffffffffffffffffffffffff1673ffffffffffffffffffffffffffffffffffffffff16815260200191505060206040518083038186803b158015610a2057600080fd5b505afa158015610a34573d6000803e3d6000fd5b505050506040513d6020811015610a4a57600080fd5b81019080805190602001909291905050509050919050565b610a6a610b5d565b1515610a7557600080fd5b600073ffffffffffffffffffffffffffffffffffffffff166000809054906101000a900473ffffffffffffffffffffffffffffffffffffffff1673ffffffffffffffffffffffffffffffffffffffff167f8be0079c531659141344cd1fd0a4f28419497f9722a3daafe3b4186f6b6457e060405160405180910390a360008060006101000a81548173ffffffffffffffffffffffffffffffffffffffff021916908373ffffffffffffffffffffffffffffffffffffffff160217905550565b60008060009054906101000a900473ffffffffffffffffffffffffffffffffffffffff16905090565b60008060009054906101000a900473ffffffffffffffffffffffffffffffffffffffff1673ffffffffffffffffffffffffffffffffffffffff163373ffffffffffffffffffffffffffffffffffffffff1614905090565b600073ffffffffffffffffffffffffffffffffffffffff168273ffffffffffffffffffffffffffffffffffffffff1614151515610bf057600080fd5b80600160008473ffffffffffffffffffffffffffffffffffffffff1673ffffffffffffffffffffffffffffffffffffffff16815260200190815260200160002060003373ffffffffffffffffffffffffffffffffffffffff1673ffffffffffffffffffffffffffffffffffffffff1681526020019081526020016000205410151515610c7b57600080fd5b610d0a81600160008573ffffffffffffffffffffffffffffffffffffffff1673ffffffffffffffffffffffffffffffffffffffff16815260200190815260200160002060003373ffffffffffffffffffffffffffffffffffffffff1673ffffffffffffffffffffffffffffffffffffffff1681526020019081526020016000205461119190919063ffffffff16565b600160008473ffffffffffffffffffffffffffffffffffffffff1673ffffffffffffffffffffffffffffffffffffffff16815260200190815260200160002060003373ffffffffffffffffffffffffffffffffffffffff1673ffffffffffffffffffffffffffffffffffffffff168152602001908152602001600020819055508173ffffffffffffffffffffffffffffffffffffffff1663a9059cbb33836040518363ffffffff167c0100000000000000000000000000000000000000000000000000000000028152600401808373ffffffffffffffffffffffffffffffffffffffff1673ffffffffffffffffffffffffffffffffffffffff16815260200182815260200192505050602060405180830381600087803b158015610e2d57600080fd5b505af1158015610e41573d6000803e3d6000fd5b505050506040513d6020811015610e5757600080fd5b81019080805190602001909291905050501515610e7357600080fd5b7f46ae78bc7b198b8b534ca0070d125569ac5f955976841c4343223079f3abf0de823383604051808473ffffffffffffffffffffffffffffffffffffffff1673ffffffffffffffffffffffffffffffffffffffff1681526020018373ffffffffffffffffffffffffffffffffffffffff1673ffffffffffffffffffffffffffffffffffffffff168152602001828152602001935050505060405180910390a15050565b6000600160008373ffffffffffffffffffffffffffffffffffffffff1673ffffffffffffffffffffffffffffffffffffffff16815260200190815260200160002060003373ffffffffffffffffffffffffffffffffffffffff1673ffffffffffffffffffffffffffffffffffffffff168152602001908152602001600020549050919050565b6001602052816000526040600020602052806000526040600020600091509150505481565b61105034600160008073ffffffffffffffffffffffffffffffffffffffff1673ffffffffffffffffffffffffffffffffffffffff16815260200190815260200160002060003373ffffffffffffffffffffffffffffffffffffffff1673ffffffffffffffffffffffffffffffffffffffff168152602001908152602001600020546111b390919063ffffffff16565b600160008073ffffffffffffffffffffffffffffffffffffffff1673ffffffffffffffffffffffffffffffffffffffff16815260200190815260200160002060003373ffffffffffffffffffffffffffffffffffffffff1673ffffffffffffffffffffffffffffffffffffffff168152602001908152602001600020819055507fb024cc5591038c18f7e2348d474092b453a32212dd1ebcc0370c4ac2e42cce4360003334604051808473ffffffffffffffffffffffffffffffffffffffff1673ffffffffffffffffffffffffffffffffffffffff1681526020018373ffffffffffffffffffffffffffffffffffffffff1673ffffffffffffffffffffffffffffffffffffffff168152602001828152602001935050505060405180910390a1565b61117a610b5d565b151561118557600080fd5b61118e816111d4565b50565b60008282111515156111a257600080fd5b600082840390508091505092915050565b60008082840190508381101515156111ca57600080fd5b8091505092915050565b600073ffffffffffffffffffffffffffffffffffffffff168173ffffffffffffffffffffffffffffffffffffffff161415151561121057600080fd5b8073ffffffffffffffffffffffffffffffffffffffff166000809054906101000a900473ffffffffffffffffffffffffffffffffffffffff1673ffffffffffffffffffffffffffffffffffffffff167f8be0079c531659141344cd1fd0a4f28419497f9722a3daafe3b4186f6b6457e060405160405180910390a3806000806101000a81548173ffffffffffffffffffffffffffffffffffffffff021916908373ffffffffffffffffffffffffffffffffffffffff1602179055505056fea165627a7a723058201c091289d6f73dc97177803fb8d0f602e613a609db6f91e64a33f745ecb00e960029",
  "source": "pragma solidity 0.5.2;\r\n\r\nimport \"./SafeMath.sol\";\r\nimport \"./IERC20.sol\";\r\nimport \"./Ownable.sol\";\r\n\r\n\r\ncontract  MyExchange is Ownable {\r\n\r\n    using SafeMath for uint256;\r\n\r\n    /// Create functionality for creating orders (buy, sell)\r\n    /// Create functionality to cancel an order\r\n\r\n    event LogDepositToken(address _token, address _user, uint256 _amount);\r\n    event LogWithdrawToken(address _token, address _user, uint256 _amount);\r\n\r\n    mapping (address => mapping (address => uint256) ) public userBalanceForToken;\r\n    /// mapping (address => mapping (type1 => type2) ) userOrders;\r\n\r\n    constructor() public {\r\n    }\r\n\r\n    /// Function to receive ETH\r\n    /// Allows the contract to manage the Ether the user deposits\r\n    /// Triggers deposit event.\r\n    function deposit() external payable {\r\n        userBalanceForToken[address(0)][msg.sender] = userBalanceForToken[address(0)][msg.sender].add(msg.value);\r\n        emit LogDepositToken(address(0), msg.sender, msg.value);\r\n    }\r\n\r\n    /// Function to withdraw ETH\r\n    /// msg.sender withdraws _amount ETH from the contract\r\n    /// triggers withdraw event\r\n    function withdraw(uint256 _amount) external {\r\n        require(userBalanceForToken[address(0)][msg.sender] >= _amount);\r\n        userBalanceForToken[address(0)][msg.sender] = userBalanceForToken[address(0)][msg.sender].sub(_amount);\r\n        msg.sender.transfer(_amount);\r\n        emit LogWithdrawToken(address(0), msg.sender, _amount);\r\n    }\r\n\r\n    /// Function to send _amount of specific _token to contract\r\n    /// This allows the contract to spend _amount tokens on your behalf.\r\n    /// msg.sender has to call approve on this contract first.\r\n    /// triggers DepositToken event.\r\n    function depositToken(address _token, uint256 _amount) external {\r\n        require(_token != address(0));\r\n        require(IERC20(_token).transferFrom(msg.sender, address(this), _amount));\r\n        userBalanceForToken[_token][msg.sender] = userBalanceForToken[_token][msg.sender].add(_amount);\r\n        emit LogDepositToken(_token, msg.sender, _amount);\r\n    }\r\n\r\n    /// function to withdraw _amount of specific _token from contract\r\n    /// triggers WithdrawToken event\r\n    function withdrawToken(address _token, uint256 _amount) external {\r\n        require(_token != address(0));\r\n        require(userBalanceForToken[_token][msg.sender] >= _amount);\r\n        userBalanceForToken[_token][msg.sender] = userBalanceForToken[_token][msg.sender].sub(_amount);\r\n        require(IERC20(_token).transfer(msg.sender, _amount));\r\n        emit LogWithdrawToken(_token, msg.sender, _amount);\r\n    }\r\n\r\n    /// function to get the amount of tokens of _token type a user has\r\n    function balanceOf(address _token) public view returns (uint256) {\r\n        return (IERC20(_token).balanceOf(msg.sender));\r\n    }\r\n\r\n    /// function to get the amount of tokens of _token type msg.sender has inside the contract\r\n    function getUserBalanceForToken(address _token) public view returns (uint256) {\r\n        return userBalanceForToken[_token][msg.sender];\r\n    }\r\n}\r\n",
  "sourcePath": "C:/Users/Madness/Desktop/TFG/exchange/exchange/contracts/MyExchange.sol",
  "compiler": {
    "name": "solc",
    "version": "0.5.2+commit.1df8f40c.Emscripten.clang"
  },
  "schemaVersion": "3.0.2",
  "updatedAt": "2019-03-21T14:39:36.265Z",
  "devdoc": {
    "methods": {
      "isOwner()": {
        "return": "true if `msg.sender` is the owner of the contract.\r"
      },
      "owner()": {
        "return": "the address of the owner.\r"
      },
      "renounceOwnership()": {
        "details": "Allows the current owner to relinquish control of the contract.\r"
      },
      "transferOwnership(address)": {
        "details": "Allows the current owner to transfer control of the contract to a newOwner.\r",
        "params": {
          "newOwner": "The address to transfer ownership to.\r"
        }
      }
    }
  },
  "userdoc": {
    "methods": {
      "balanceOf(address)": {
        "notice": "function to get the amount of tokens of _token type a user has"
      },
      "constructor": "mapping (address => mapping (type1 => type2) ) userOrders;",
      "deposit()": {
        "notice": "Triggers deposit event."
      },
      "depositToken(address,uint256)": {
        "notice": "triggers DepositToken event."
      },
      "getUserBalanceForToken(address)": {
        "notice": "function to get the amount of tokens of _token type msg.sender has inside the contract"
      },
      "renounceOwnership()": {
        "notice": "Renouncing to ownership will leave the contract without an owner.\r It will not be possible to call the functions with the `onlyOwner`\r modifier anymore.\r"
      },
      "withdraw(uint256)": {
        "notice": "triggers withdraw event"
      },
      "withdrawToken(address,uint256)": {
        "notice": "triggers WithdrawToken event"
      }
    }
  }
}