{
  "contractName": "MyExchange",
  "abi": [
    {
      "constant": true,
      "inputs": [
        {
          "name": "",
          "type": "uint256"
        }
      ],
      "name": "openOrders",
      "outputs": [
        {
          "name": "orderMaker",
          "type": "address"
        },
        {
          "name": "haveTokenId",
          "type": "uint256"
        },
        {
          "name": "haveAmount",
          "type": "uint256"
        },
        {
          "name": "wantTokenId",
          "type": "uint256"
        },
        {
          "name": "wantAmount",
          "type": "uint256"
        },
        {
          "name": "creationBlock",
          "type": "uint256"
        }
      ],
      "payable": false,
      "stateMutability": "view",
      "type": "function",
      "signature": "0x447c1e8c"
    },
    {
      "constant": false,
      "inputs": [],
      "name": "renounceOwnership",
      "outputs": [],
      "payable": false,
      "stateMutability": "nonpayable",
      "type": "function",
      "signature": "0x715018a6"
    },
    {
      "constant": true,
      "inputs": [],
      "name": "owner",
      "outputs": [
        {
          "name": "",
          "type": "address"
        }
      ],
      "payable": false,
      "stateMutability": "view",
      "type": "function",
      "signature": "0x8da5cb5b"
    },
    {
      "constant": true,
      "inputs": [],
      "name": "isOwner",
      "outputs": [
        {
          "name": "",
          "type": "bool"
        }
      ],
      "payable": false,
      "stateMutability": "view",
      "type": "function",
      "signature": "0x8f32d59b"
    },
    {
      "constant": true,
      "inputs": [],
      "name": "lastExpiredOrder",
      "outputs": [
        {
          "name": "",
          "type": "uint256"
        }
      ],
      "payable": false,
      "stateMutability": "view",
      "type": "function",
      "signature": "0x9393cbf5"
    },
    {
      "constant": true,
      "inputs": [],
      "name": "expirationBlocks",
      "outputs": [
        {
          "name": "",
          "type": "uint256"
        }
      ],
      "payable": false,
      "stateMutability": "view",
      "type": "function",
      "signature": "0xa71f7f1c"
    },
    {
      "constant": true,
      "inputs": [
        {
          "name": "",
          "type": "address"
        },
        {
          "name": "",
          "type": "address"
        }
      ],
      "name": "userBalanceForToken",
      "outputs": [
        {
          "name": "available",
          "type": "uint256"
        },
        {
          "name": "locked",
          "type": "uint256"
        }
      ],
      "payable": false,
      "stateMutability": "view",
      "type": "function",
      "signature": "0xb009e4d3"
    },
    {
      "constant": true,
      "inputs": [],
      "name": "arrayLength",
      "outputs": [
        {
          "name": "",
          "type": "uint256"
        }
      ],
      "payable": false,
      "stateMutability": "view",
      "type": "function",
      "signature": "0xe554482e"
    },
    {
      "constant": true,
      "inputs": [
        {
          "name": "",
          "type": "uint256"
        }
      ],
      "name": "tokenAddresses",
      "outputs": [
        {
          "name": "",
          "type": "address"
        }
      ],
      "payable": false,
      "stateMutability": "view",
      "type": "function",
      "signature": "0xe5df8b84"
    },
    {
      "constant": false,
      "inputs": [
        {
          "name": "newOwner",
          "type": "address"
        }
      ],
      "name": "transferOwnership",
      "outputs": [],
      "payable": false,
      "stateMutability": "nonpayable",
      "type": "function",
      "signature": "0xf2fde38b"
    },
    {
      "constant": true,
      "inputs": [
        {
          "name": "",
          "type": "address"
        }
      ],
      "name": "tokenIds",
      "outputs": [
        {
          "name": "",
          "type": "uint256"
        }
      ],
      "payable": false,
      "stateMutability": "view",
      "type": "function",
      "signature": "0xfc97a303"
    },
    {
      "inputs": [],
      "payable": false,
      "stateMutability": "nonpayable",
      "type": "constructor",
      "signature": "constructor"
    },
    {
      "anonymous": false,
      "inputs": [
        {
          "indexed": true,
          "name": "_user",
          "type": "address"
        },
        {
          "indexed": true,
          "name": "_token",
          "type": "address"
        },
        {
          "indexed": false,
          "name": "_amount",
          "type": "uint256"
        }
      ],
      "name": "LogDepositToken",
      "type": "event",
      "signature": "0xb024cc5591038c18f7e2348d474092b453a32212dd1ebcc0370c4ac2e42cce43"
    },
    {
      "anonymous": false,
      "inputs": [
        {
          "indexed": true,
          "name": "_user",
          "type": "address"
        },
        {
          "indexed": true,
          "name": "_token",
          "type": "address"
        },
        {
          "indexed": false,
          "name": "_amount",
          "type": "uint256"
        }
      ],
      "name": "LogWithdrawToken",
      "type": "event",
      "signature": "0x46ae78bc7b198b8b534ca0070d125569ac5f955976841c4343223079f3abf0de"
    },
    {
      "anonymous": false,
      "inputs": [
        {
          "indexed": false,
          "name": "_orderMaker",
          "type": "address"
        },
        {
          "indexed": false,
          "name": "_haveTokenId",
          "type": "uint256"
        },
        {
          "indexed": false,
          "name": "_haveAmount",
          "type": "uint256"
        },
        {
          "indexed": false,
          "name": "_wantTokenId",
          "type": "uint256"
        },
        {
          "indexed": false,
          "name": "_wantAmount",
          "type": "uint256"
        },
        {
          "indexed": false,
          "name": "_creationBlock",
          "type": "uint256"
        }
      ],
      "name": "LogOrder",
      "type": "event",
      "signature": "0xd199d758a27cf650a12cc585bb50b544742b93e08d3bba05f85a1328d9d1ee90"
    },
    {
      "anonymous": false,
      "inputs": [
        {
          "indexed": false,
          "name": "_orderMaker",
          "type": "address"
        },
        {
          "indexed": false,
          "name": "_haveTokenId",
          "type": "uint256"
        },
        {
          "indexed": false,
          "name": "_haveAmount",
          "type": "uint256"
        },
        {
          "indexed": false,
          "name": "_wantTokenId",
          "type": "uint256"
        },
        {
          "indexed": false,
          "name": "_wantAmount",
          "type": "uint256"
        },
        {
          "indexed": false,
          "name": "_creationBlock",
          "type": "uint256"
        },
        {
          "indexed": false,
          "name": "_amountFill",
          "type": "uint256"
        }
      ],
      "name": "LogTrade",
      "type": "event",
      "signature": "0xe2c51a7545742cdadcaa57e4b0768cf4c99d94d6570d0562bacc6d0d89a5b339"
    },
    {
      "anonymous": false,
      "inputs": [
        {
          "indexed": false,
          "name": "_orderMaker",
          "type": "address"
        },
        {
          "indexed": false,
          "name": "_haveTokenId",
          "type": "uint256"
        },
        {
          "indexed": false,
          "name": "_haveAmount",
          "type": "uint256"
        },
        {
          "indexed": false,
          "name": "_wantTokenId",
          "type": "uint256"
        },
        {
          "indexed": false,
          "name": "_wantAmount",
          "type": "uint256"
        },
        {
          "indexed": false,
          "name": "_creationBlock",
          "type": "uint256"
        }
      ],
      "name": "LogCancelOrder",
      "type": "event",
      "signature": "0x45caffda464ddd8d2e49c5ac57db800a2160d1bc35d3b7757ee94191cd28d90d"
    },
    {
      "anonymous": false,
      "inputs": [
        {
          "indexed": true,
          "name": "previousOwner",
          "type": "address"
        },
        {
          "indexed": true,
          "name": "newOwner",
          "type": "address"
        }
      ],
      "name": "OwnershipTransferred",
      "type": "event",
      "signature": "0x8be0079c531659141344cd1fd0a4f28419497f9722a3daafe3b4186f6b6457e0"
    },
    {
      "constant": false,
      "inputs": [
        {
          "name": "_tokenAddress",
          "type": "address"
        }
      ],
      "name": "addToken",
      "outputs": [],
      "payable": false,
      "stateMutability": "nonpayable",
      "type": "function",
      "signature": "0xd48bfca7"
    },
    {
      "constant": false,
      "inputs": [],
      "name": "deposit",
      "outputs": [],
      "payable": true,
      "stateMutability": "payable",
      "type": "function",
      "signature": "0xd0e30db0"
    },
    {
      "constant": false,
      "inputs": [
        {
          "name": "_amount",
          "type": "uint256"
        }
      ],
      "name": "withdraw",
      "outputs": [],
      "payable": false,
      "stateMutability": "nonpayable",
      "type": "function",
      "signature": "0x2e1a7d4d"
    },
    {
      "constant": false,
      "inputs": [
        {
          "name": "_token",
          "type": "address"
        },
        {
          "name": "_amount",
          "type": "uint256"
        }
      ],
      "name": "depositToken",
      "outputs": [],
      "payable": false,
      "stateMutability": "nonpayable",
      "type": "function",
      "signature": "0x338b5dea"
    },
    {
      "constant": false,
      "inputs": [
        {
          "name": "_token",
          "type": "address"
        },
        {
          "name": "_amount",
          "type": "uint256"
        }
      ],
      "name": "withdrawToken",
      "outputs": [],
      "payable": false,
      "stateMutability": "nonpayable",
      "type": "function",
      "signature": "0x9e281a98"
    },
    {
      "constant": false,
      "inputs": [
        {
          "name": "_haveToken",
          "type": "address"
        },
        {
          "name": "_haveAmount",
          "type": "uint256"
        },
        {
          "name": "_wantToken",
          "type": "address"
        },
        {
          "name": "_wantAmount",
          "type": "uint256"
        }
      ],
      "name": "placeOrder",
      "outputs": [],
      "payable": true,
      "stateMutability": "payable",
      "type": "function",
      "signature": "0xafe18413"
    },
    {
      "constant": false,
      "inputs": [
        {
          "name": "_orderIndex",
          "type": "uint256"
        }
      ],
      "name": "cancelOrder",
      "outputs": [],
      "payable": false,
      "stateMutability": "nonpayable",
      "type": "function",
      "signature": "0x514fcac7"
    },
    {
      "constant": false,
      "inputs": [
        {
          "name": "_orderIndex",
          "type": "uint256"
        },
        {
          "name": "_amountFill",
          "type": "uint256"
        }
      ],
      "name": "executeOrder",
      "outputs": [],
      "payable": false,
      "stateMutability": "nonpayable",
      "type": "function",
      "signature": "0xef46e0ca"
    },
    {
      "constant": false,
      "inputs": [
        {
          "name": "_expiraton",
          "type": "uint256"
        }
      ],
      "name": "setExpiration",
      "outputs": [],
      "payable": false,
      "stateMutability": "nonpayable",
      "type": "function",
      "signature": "0x515a20ba"
    },
    {
      "constant": false,
      "inputs": [],
      "name": "deleteExpiredOrders",
      "outputs": [],
      "payable": false,
      "stateMutability": "nonpayable",
      "type": "function",
      "signature": "0x8cbfd95b"
    },
    {
      "constant": true,
      "inputs": [
        {
          "name": "_token",
          "type": "address"
        }
      ],
      "name": "balanceOf",
      "outputs": [
        {
          "name": "",
          "type": "uint256"
        }
      ],
      "payable": false,
      "stateMutability": "view",
      "type": "function",
      "signature": "0x70a08231"
    },
    {
      "constant": true,
      "inputs": [
        {
          "name": "_token",
          "type": "address"
        }
      ],
      "name": "getUserBalanceForToken",
      "outputs": [
        {
          "components": [
            {
              "name": "available",
              "type": "uint256"
            },
            {
              "name": "locked",
              "type": "uint256"
            }
          ],
          "name": "",
          "type": "tuple"
        }
      ],
      "payable": false,
      "stateMutability": "view",
      "type": "function",
      "signature": "0xaadcc9c6"
    },
    {
      "constant": true,
      "inputs": [
        {
          "name": "_token",
          "type": "address"
        }
      ],
      "name": "getTokenId",
      "outputs": [
        {
          "name": "",
          "type": "uint256"
        }
      ],
      "payable": false,
      "stateMutability": "view",
      "type": "function",
      "signature": "0xf1537686"
    },
    {
      "constant": true,
      "inputs": [
        {
          "name": "_tokenId",
          "type": "uint256"
        }
      ],
      "name": "getTokenAddress",
      "outputs": [
        {
          "name": "",
          "type": "address"
        }
      ],
      "payable": false,
      "stateMutability": "view",
      "type": "function",
      "signature": "0x67ccdf38"
    },
    {
      "constant": true,
      "inputs": [
        {
          "name": "_orderIndex",
          "type": "uint256"
        }
      ],
      "name": "getOrder",
      "outputs": [
        {
          "components": [
            {
              "name": "orderMaker",
              "type": "address"
            },
            {
              "name": "haveTokenId",
              "type": "uint256"
            },
            {
              "name": "haveAmount",
              "type": "uint256"
            },
            {
              "name": "wantTokenId",
              "type": "uint256"
            },
            {
              "name": "wantAmount",
              "type": "uint256"
            },
            {
              "name": "creationBlock",
              "type": "uint256"
            }
          ],
          "name": "",
          "type": "tuple"
        }
      ],
      "payable": false,
      "stateMutability": "view",
      "type": "function",
      "signature": "0xd09ef241"
    },
    {
      "constant": true,
      "inputs": [],
      "name": "getTokens",
      "outputs": [
        {
          "name": "",
          "type": "address[]"
        }
      ],
      "payable": false,
      "stateMutability": "view",
      "type": "function",
      "signature": "0xaa6ca808"
    },
    {
      "constant": true,
      "inputs": [],
      "name": "getOpenOrders",
      "outputs": [
        {
          "components": [
            {
              "name": "orderMaker",
              "type": "address"
            },
            {
              "name": "haveTokenId",
              "type": "uint256"
            },
            {
              "name": "haveAmount",
              "type": "uint256"
            },
            {
              "name": "wantTokenId",
              "type": "uint256"
            },
            {
              "name": "wantAmount",
              "type": "uint256"
            },
            {
              "name": "creationBlock",
              "type": "uint256"
            }
          ],
          "name": "",
          "type": "tuple[]"
        },
        {
          "name": "",
          "type": "uint256[]"
        }
      ],
      "payable": false,
      "stateMutability": "view",
      "type": "function",
      "signature": "0xdbe5bab5"
    }
  ],
  "bytecode": "0x608060405234801561001057600080fd5b50336000806101000a81548173ffffffffffffffffffffffffffffffffffffffff021916908373ffffffffffffffffffffffffffffffffffffffff1602179055506000809054906101000a900473ffffffffffffffffffffffffffffffffffffffff1673ffffffffffffffffffffffffffffffffffffffff16600073ffffffffffffffffffffffffffffffffffffffff167f8be0079c531659141344cd1fd0a4f28419497f9722a3daafe3b4186f6b6457e060405160405180910390a36001600560008073ffffffffffffffffffffffffffffffffffffffff1673ffffffffffffffffffffffffffffffffffffffff168152602001908152602001600020819055506006600090806001815401808255809150509060018203906000526020600020016000909192909190916101000a81548173ffffffffffffffffffffffffffffffffffffffff021916908373ffffffffffffffffffffffffffffffffffffffff16021790555050611388600281905550613e7a806101916000396000f3fe6080604052600436106101d4576000357c010000000000000000000000000000000000000000000000000000000090048063aa6ca80811610109578063dbe5bab5116100a7578063ef46e0ca11610081578063ef46e0ca14610602578063f15376861461062b578063f2fde38b14610668578063fc97a30314610691576101d4565b8063dbe5bab51461056e578063e554482e1461059a578063e5df8b84146105c5576101d4565b8063b009e4d3116100e3578063b009e4d3146104c0578063d09ef241146104fe578063d0e30db01461053b578063d48bfca714610545576101d4565b8063aa6ca8081461043c578063aadcc9c614610467578063afe18413146104a4576101d4565b8063715018a6116101765780638f32d59b116101505780638f32d59b146103925780639393cbf5146103bd5780639e281a98146103e8578063a71f7f1c14610411576101d4565b8063715018a6146103395780638cbfd95b146103505780638da5cb5b14610367576101d4565b8063514fcac7116101b2578063514fcac71461026d578063515a20ba1461029657806367ccdf38146102bf57806370a08231146102fc576101d4565b80632e1a7d4d146101d9578063338b5dea14610202578063447c1e8c1461022b575b600080fd5b3480156101e557600080fd5b5061020060048036036101fb9190810190613390565b6106ce565b005b34801561020e57600080fd5b50610229600480360361022491908101906132c8565b610867565b005b34801561023757600080fd5b50610252600480360361024d9190810190613390565b610a55565b60405161026496959493929190613a0d565b60405180910390f35b34801561027957600080fd5b50610294600480360361028f9190810190613390565b610ac0565b005b3480156102a257600080fd5b506102bd60048036036102b89190810190613390565b610ed8565b005b3480156102cb57600080fd5b506102e660048036036102e19190810190613390565b610ef5565b6040516102f391906138ed565b60405180910390f35b34801561030857600080fd5b50610323600480360361031e9190810190613263565b610f91565b6040516103309190613ce7565b60405180910390f35b34801561034557600080fd5b5061034e61103f565b005b34801561035c57600080fd5b50610365611111565b005b34801561037357600080fd5b5061037c611232565b60405161038991906138ed565b60405180910390f35b34801561039e57600080fd5b506103a761125b565b6040516103b49190613b36565b60405180910390f35b3480156103c957600080fd5b506103d26112b2565b6040516103df9190613ce7565b60405180910390f35b3480156103f457600080fd5b5061040f600480360361040a91908101906132c8565b6112b8565b005b34801561041d57600080fd5b506104266115ef565b6040516104339190613ce7565b60405180910390f35b34801561044857600080fd5b506104516115f5565b60405161045e9190613add565b60405180910390f35b34801561047357600080fd5b5061048e60048036036104899190810190613263565b6116e7565b60405161049b9190613cb1565b60405180910390f35b6104be60048036036104b99190810190613304565b611791565b005b3480156104cc57600080fd5b506104e760048036036104e2919081019061328c565b611c46565b6040516104f5929190613d02565b60405180910390f35b34801561050a57600080fd5b5061052560048036036105209190810190613390565b611c77565b6040516105329190613ccc565b60405180910390f35b610543611df3565b005b34801561055157600080fd5b5061056c60048036036105679190810190613263565b611efb565b005b34801561057a57600080fd5b50610583612046565b604051610591929190613aff565b60405180910390f35b3480156105a657600080fd5b506105af612228565b6040516105bc9190613ce7565b60405180910390f35b3480156105d157600080fd5b506105ec60048036036105e79190810190613390565b61222e565b6040516105f991906138ed565b60405180910390f35b34801561060e57600080fd5b50610629600480360361062491908101906133e2565b61226c565b005b34801561063757600080fd5b50610652600480360361064d9190810190613263565b6129f3565b60405161065f9190613ce7565b60405180910390f35b34801561067457600080fd5b5061068f600480360361068a9190810190613263565b612ac3565b005b34801561069d57600080fd5b506106b860048036036106b39190810190613263565b612ae2565b6040516106c59190613ce7565b60405180910390f35b6000600760008073ffffffffffffffffffffffffffffffffffffffff1673ffffffffffffffffffffffffffffffffffffffff16815260200190815260200160002060003373ffffffffffffffffffffffffffffffffffffffff1673ffffffffffffffffffffffffffffffffffffffff168152602001908152602001600020905081816000015410151515610797576040517f08c379a000000000000000000000000000000000000000000000000000000000815260040161078e90613bd1565b60405180910390fd5b6107ae828260000154612afa90919063ffffffff16565b81600001819055503373ffffffffffffffffffffffffffffffffffffffff166108fc839081150290604051600060405180830381858888f193505050501580156107fc573d6000803e3d6000fd5b50600073ffffffffffffffffffffffffffffffffffffffff163373ffffffffffffffffffffffffffffffffffffffff167f46ae78bc7b198b8b534ca0070d125569ac5f955976841c4343223079f3abf0de8460405161085b9190613ce7565b60405180910390a35050565b81600073ffffffffffffffffffffffffffffffffffffffff168173ffffffffffffffffffffffffffffffffffffffff16141515156108da576040517f08c379a00000000000000000000000000000000000000000000000000000000081526004016108d190613c71565b60405180910390fd5b826000600560008373ffffffffffffffffffffffffffffffffffffffff1673ffffffffffffffffffffffffffffffffffffffff1681526020019081526020016000205414151515610960576040517f08c379a000000000000000000000000000000000000000000000000000000000815260040161095790613c11565b60405180910390fd5b6109a9600560008673ffffffffffffffffffffffffffffffffffffffff1673ffffffffffffffffffffffffffffffffffffffff1681526020019081526020016000205484612b1c565b15156109ea576040517f08c379a00000000000000000000000000000000000000000000000000000000081526004016109e190613b71565b60405180910390fd5b8373ffffffffffffffffffffffffffffffffffffffff163373ffffffffffffffffffffffffffffffffffffffff167fb024cc5591038c18f7e2348d474092b453a32212dd1ebcc0370c4ac2e42cce4385604051610a479190613ce7565b60405180910390a350505050565b600481815481101515610a6457fe5b90600052602060002090600602016000915090508060000160009054906101000a900473ffffffffffffffffffffffffffffffffffffffff16908060010154908060020154908060030154908060040154908060050154905086565b806000600154118015610ad4575060015481105b1515610b15576040517f08c379a0000000000000000000000000000000000000000000000000000000008152600401610b0c90613b51565b60405180910390fd5b6000600482815481101515610b2657fe5b90600052602060002090600602016002015414151515610b7b576040517f08c379a0000000000000000000000000000000000000000000000000000000008152600401610b7290613b51565b60405180910390fd5b813373ffffffffffffffffffffffffffffffffffffffff16600482815481101515610ba257fe5b906000526020600020906006020160000160009054906101000a900473ffffffffffffffffffffffffffffffffffffffff1673ffffffffffffffffffffffffffffffffffffffff16141515610bf657600080fd5b82600081141515610c485760035481111515610c47576040517f08c379a0000000000000000000000000000000000000000000000000000000008152600401610c3e90613c51565b60405180910390fd5b5b43610c7e600254600484815481101515610c5e57fe5b906000526020600020906006020160050154612fdc90919063ffffffff16565b10151515610cc1576040517f08c379a0000000000000000000000000000000000000000000000000000000008152600401610cb890613c51565b60405180910390fd5b6000600485815481101515610cd257fe5b9060005260206000209060060201905060006007600060066001856001015403815481101515610cfe57fe5b9060005260206000200160009054906101000a900473ffffffffffffffffffffffffffffffffffffffff1673ffffffffffffffffffffffffffffffffffffffff1673ffffffffffffffffffffffffffffffffffffffff16815260200190815260200160002060003373ffffffffffffffffffffffffffffffffffffffff1673ffffffffffffffffffffffffffffffffffffffff1681526020019081526020016000209050610dbd82600201548260010154612afa90919063ffffffff16565b8160010181905550610de082600201548260000154612fdc90919063ffffffff16565b81600001819055507f45caffda464ddd8d2e49c5ac57db800a2160d1bc35d3b7757ee94191cd28d90d8260000160009054906101000a900473ffffffffffffffffffffffffffffffffffffffff1683600101548460020154856003015486600401548760050154604051610e5996959493929190613a0d565b60405180910390a1600486815481101515610e7057fe5b9060005260206000209060060201600080820160006101000a81549073ffffffffffffffffffffffffffffffffffffffff0219169055600182016000905560028201600090556003820160009055600482016000905560058201600090555050505050505050565b610ee061125b565b1515610eeb57600080fd5b8060028190555050565b6000808214158015610f0c57506006805490508211155b1515610f4d576040517f08c379a0000000000000000000000000000000000000000000000000000000008152600401610f4490613c91565b60405180910390fd5b600660018303815481101515610f5f57fe5b9060005260206000200160009054906101000a900473ffffffffffffffffffffffffffffffffffffffff169050919050565b60008173ffffffffffffffffffffffffffffffffffffffff166370a08231336040518263ffffffff167c0100000000000000000000000000000000000000000000000000000000028152600401610fe89190613908565b60206040518083038186803b15801561100057600080fd5b505afa158015611014573d6000803e3d6000fd5b505050506040513d601f19601f8201168201806040525061103891908101906133b9565b9050919050565b61104761125b565b151561105257600080fd5b600073ffffffffffffffffffffffffffffffffffffffff166000809054906101000a900473ffffffffffffffffffffffffffffffffffffffff1673ffffffffffffffffffffffffffffffffffffffff167f8be0079c531659141344cd1fd0a4f28419497f9722a3daafe3b4186f6b6457e060405160405180910390a360008060006101000a81548173ffffffffffffffffffffffffffffffffffffffff021916908373ffffffffffffffffffffffffffffffffffffffff160217905550565b61111961125b565b151561112457600080fd5b600060035490505b60015481101561122f57600060048281548110151561114757fe5b906000526020600020906006020160050154141561116457611222565b4361119a60025460048481548110151561117a57fe5b906000526020600020906006020160050154612fdc90919063ffffffff16565b111515611215576004818154811015156111b057fe5b9060005260206000209060060201600080820160006101000a81549073ffffffffffffffffffffffffffffffffffffffff0219169055600182016000905560028201600090556003820160009055600482016000905560058201600090555050611221565b8060038190555061122f565b5b808060010191505061112c565b50565b60008060009054906101000a900473ffffffffffffffffffffffffffffffffffffffff16905090565b60008060009054906101000a900473ffffffffffffffffffffffffffffffffffffffff1673ffffffffffffffffffffffffffffffffffffffff163373ffffffffffffffffffffffffffffffffffffffff1614905090565b60035481565b81600073ffffffffffffffffffffffffffffffffffffffff168173ffffffffffffffffffffffffffffffffffffffff161415151561132b576040517f08c379a000000000000000000000000000000000000000000000000000000000815260040161132290613c71565b60405180910390fd5b826000600560008373ffffffffffffffffffffffffffffffffffffffff1673ffffffffffffffffffffffffffffffffffffffff16815260200190815260200160002054141515156113b1576040517f08c379a00000000000000000000000000000000000000000000000000000000081526004016113a890613c11565b60405180910390fd5b6000600760008673ffffffffffffffffffffffffffffffffffffffff1673ffffffffffffffffffffffffffffffffffffffff16815260200190815260200160002060003373ffffffffffffffffffffffffffffffffffffffff1673ffffffffffffffffffffffffffffffffffffffff16815260200190815260200160002090508381600001541015151561147a576040517f08c379a000000000000000000000000000000000000000000000000000000000815260040161147190613bd1565b60405180910390fd5b611491848260000154612afa90919063ffffffff16565b81600001819055508473ffffffffffffffffffffffffffffffffffffffff1663a9059cbb33866040518363ffffffff167c01000000000000000000000000000000000000000000000000000000000281526004016114f0929190613983565b602060405180830381600087803b15801561150a57600080fd5b505af115801561151e573d6000803e3d6000fd5b505050506040513d601f19601f820116820180604052506115429190810190613367565b1515611583576040517f08c379a000000000000000000000000000000000000000000000000000000000815260040161157a90613b91565b60405180910390fd5b8473ffffffffffffffffffffffffffffffffffffffff163373ffffffffffffffffffffffffffffffffffffffff167f46ae78bc7b198b8b534ca0070d125569ac5f955976841c4343223079f3abf0de866040516115e09190613ce7565b60405180910390a35050505050565b60025481565b60608060068054905060405190808252806020026020018201604052801561162c5781602001602082028038833980820191505090505b509050600080905060008090505b6006805490508110156116de5760068181548110151561165657fe5b9060005260206000200160009054906101000a900473ffffffffffffffffffffffffffffffffffffffff16838380600101945081518110151561169557fe5b9060200190602002019073ffffffffffffffffffffffffffffffffffffffff16908173ffffffffffffffffffffffffffffffffffffffff1681525050808060010191505061163a565b50819250505090565b6116ef61315f565b600760008373ffffffffffffffffffffffffffffffffffffffff1673ffffffffffffffffffffffffffffffffffffffff16815260200190815260200160002060003373ffffffffffffffffffffffffffffffffffffffff1673ffffffffffffffffffffffffffffffffffffffff168152602001908152602001600020604080519081016040529081600082015481526020016001820154815250509050919050565b836000600560008373ffffffffffffffffffffffffffffffffffffffff1673ffffffffffffffffffffffffffffffffffffffff1681526020019081526020016000205414151515611817576040517f08c379a000000000000000000000000000000000000000000000000000000000815260040161180e90613c11565b60405180910390fd5b826000600560008373ffffffffffffffffffffffffffffffffffffffff1673ffffffffffffffffffffffffffffffffffffffff168152602001908152602001600020541415151561189d576040517f08c379a000000000000000000000000000000000000000000000000000000000815260040161189490613c11565b60405180910390fd5b6000600760008873ffffffffffffffffffffffffffffffffffffffff1673ffffffffffffffffffffffffffffffffffffffff16815260200190815260200160002060003373ffffffffffffffffffffffffffffffffffffffff1673ffffffffffffffffffffffffffffffffffffffff168152602001908152602001600020905085816000015410156119ca57611988600560008973ffffffffffffffffffffffffffffffffffffffff1673ffffffffffffffffffffffffffffffffffffffff16815260200190815260200160002054611983836000015489612afa90919063ffffffff16565b612b1c565b15156119c9576040517f08c379a00000000000000000000000000000000000000000000000000000000081526004016119c090613c31565b60405180910390fd5b5b6119e1868260000154612afa90919063ffffffff16565b8160000181905550611a00868260010154612fdc90919063ffffffff16565b8160010181905550600460c0604051908101604052803373ffffffffffffffffffffffffffffffffffffffff168152602001600560008b73ffffffffffffffffffffffffffffffffffffffff1673ffffffffffffffffffffffffffffffffffffffff168152602001908152602001600020548152602001888152602001600560008973ffffffffffffffffffffffffffffffffffffffff1673ffffffffffffffffffffffffffffffffffffffff168152602001908152602001600020548152602001868152602001438152509080600181540180825580915050906001820390600052602060002090600602016000909192909190915060008201518160000160006101000a81548173ffffffffffffffffffffffffffffffffffffffff021916908373ffffffffffffffffffffffffffffffffffffffff1602179055506020820151816001015560408201518160020155606082015181600301556080820151816004015560a0820151816005015550505060018054016001819055507fd199d758a27cf650a12cc585bb50b544742b93e08d3bba05f85a1328d9d1ee9033600560008a73ffffffffffffffffffffffffffffffffffffffff1673ffffffffffffffffffffffffffffffffffffffff1681526020019081526020016000205488600560008a73ffffffffffffffffffffffffffffffffffffffff1673ffffffffffffffffffffffffffffffffffffffff168152602001908152602001600020548843604051611c35969594939291906139ac565b60405180910390a150505050505050565b6007602052816000526040600020602052806000526040600020600091509150508060000154908060010154905082565b611c7f613179565b816000600154118015611c93575060015481105b1515611cd4576040517f08c379a0000000000000000000000000000000000000000000000000000000008152600401611ccb90613b51565b60405180910390fd5b6000600482815481101515611ce557fe5b90600052602060002090600602016002015414151515611d3a576040517f08c379a0000000000000000000000000000000000000000000000000000000008152600401611d3190613b51565b60405180910390fd5b600483815481101515611d4957fe5b906000526020600020906006020160c060405190810160405290816000820160009054906101000a900473ffffffffffffffffffffffffffffffffffffffff1673ffffffffffffffffffffffffffffffffffffffff1673ffffffffffffffffffffffffffffffffffffffff16815260200160018201548152602001600282015481526020016003820154815260200160048201548152602001600582015481525050915050919050565b6000600760008073ffffffffffffffffffffffffffffffffffffffff1673ffffffffffffffffffffffffffffffffffffffff16815260200190815260200160002060003373ffffffffffffffffffffffffffffffffffffffff1673ffffffffffffffffffffffffffffffffffffffff1681526020019081526020016000209050611e8a348260000154612fdc90919063ffffffff16565b8160000181905550600073ffffffffffffffffffffffffffffffffffffffff163373ffffffffffffffffffffffffffffffffffffffff167fb024cc5591038c18f7e2348d474092b453a32212dd1ebcc0370c4ac2e42cce4334604051611ef09190613ce7565b60405180910390a350565b611f0361125b565b1515611f0e57600080fd5b806000600560008373ffffffffffffffffffffffffffffffffffffffff1673ffffffffffffffffffffffffffffffffffffffff16815260200190815260200160002054141515611f93576040517f08c379a0000000000000000000000000000000000000000000000000000000008152600401611f8a90613bf1565b60405180910390fd5b60068290806001815401808255809150509060018203906000526020600020016000909192909190916101000a81548173ffffffffffffffffffffffffffffffffffffffff021916908373ffffffffffffffffffffffffffffffffffffffff16021790555050600680549050600560008473ffffffffffffffffffffffffffffffffffffffff1673ffffffffffffffffffffffffffffffffffffffff168152602001908152602001600020819055505050565b6060806000612062600354600154612afa90919063ffffffff16565b90506060816040519080825280602002602001820160405280156120a057816020015b61208d6131c6565b8152602001906001900390816120855790505b5090506060826040519080825280602002602001820160405280156120d45781602001602082028038833980820191505090505b5090506000809050600060035490505b6001548110156122195760006004828154811015156120ff57fe5b906000526020600020906006020160040154141561211c5761220c565b60048181548110151561212b57fe5b906000526020600020906006020160c060405190810160405290816000820160009054906101000a900473ffffffffffffffffffffffffffffffffffffffff1673ffffffffffffffffffffffffffffffffffffffff1673ffffffffffffffffffffffffffffffffffffffff1681526020016001820154815260200160028201548152602001600382015481526020016004820154815260200160058201548152505084838151811015156121db57fe5b906020019060200201819052508083838060010194508151811015156121fd57fe5b90602001906020020181815250505b80806001019150506120e4565b50828295509550505050509091565b60015481565b60068181548110151561223d57fe5b906000526020600020016000915054906101000a900473ffffffffffffffffffffffffffffffffffffffff1681565b816000600154118015612280575060015481105b15156122c1576040517f08c379a00000000000000000000000000000000000000000000000000000000081526004016122b890613b51565b60405180910390fd5b60006004828154811015156122d257fe5b90600052602060002090600602016002015414151515612327576040517f08c379a000000000000000000000000000000000000000000000000000000000815260040161231e90613b51565b60405180910390fd5b826000811415156123795760035481111515612378576040517f08c379a000000000000000000000000000000000000000000000000000000000815260040161236f90613c51565b60405180910390fd5b5b436123af60025460048481548110151561238f57fe5b906000526020600020906006020160050154612fdc90919063ffffffff16565b101515156123f2576040517f08c379a00000000000000000000000000000000000000000000000000000000081526004016123e990613c51565b60405180910390fd5b600060048581548110151561240357fe5b906000526020600020906006020190506000600760006006600185600301540381548110151561242f57fe5b9060005260206000200160009054906101000a900473ffffffffffffffffffffffffffffffffffffffff1673ffffffffffffffffffffffffffffffffffffffff1673ffffffffffffffffffffffffffffffffffffffff16815260200190815260200160002060003373ffffffffffffffffffffffffffffffffffffffff1673ffffffffffffffffffffffffffffffffffffffff168152602001908152602001600020905084816000015410156125455761250382600101546124fe836000015488612afa90919063ffffffff16565b612b1c565b1515612544576040517f08c379a000000000000000000000000000000000000000000000000000000000815260040161253b90613c31565b60405180910390fd5b5b6000859050826004015486111561259957826004015490506000612576846004015488612afa90919063ffffffff16565b905061258f818460000154612fdc90919063ffffffff16565b8360000181905550505b60006125b684600401548560020154612ffd90919063ffffffff16565b905060006125cd838361302790919063ffffffff16565b9050600060076000600660018960030154038154811015156125eb57fe5b9060005260206000200160009054906101000a900473ffffffffffffffffffffffffffffffffffffffff1673ffffffffffffffffffffffffffffffffffffffff1673ffffffffffffffffffffffffffffffffffffffff16815260200190815260200160002060003373ffffffffffffffffffffffffffffffffffffffff1673ffffffffffffffffffffffffffffffffffffffff16815260200190815260200160002090506126a6828260010154612afa90919063ffffffff16565b81600101819055506126c5848660000154612afa90919063ffffffff16565b8560000181905550600060076000600660018a60030154038154811015156126e957fe5b9060005260206000200160009054906101000a900473ffffffffffffffffffffffffffffffffffffffff1673ffffffffffffffffffffffffffffffffffffffff1673ffffffffffffffffffffffffffffffffffffffff16815260200190815260200160002060008860000160009054906101000a900473ffffffffffffffffffffffffffffffffffffffff1673ffffffffffffffffffffffffffffffffffffffff1673ffffffffffffffffffffffffffffffffffffffff16815260200190815260200160002090506127c8858260000154612fdc90919063ffffffff16565b8160000181905550600060076000600660018b60010154038154811015156127ec57fe5b9060005260206000200160009054906101000a900473ffffffffffffffffffffffffffffffffffffffff1673ffffffffffffffffffffffffffffffffffffffff1673ffffffffffffffffffffffffffffffffffffffff16815260200190815260200160002060003373ffffffffffffffffffffffffffffffffffffffff1673ffffffffffffffffffffffffffffffffffffffff16815260200190815260200160002090506128a7848260000154612fdc90919063ffffffff16565b81600001819055506128c6868960040154612afa90919063ffffffff16565b88600401819055506128e5848960020154612afa90919063ffffffff16565b886002018190555060008860040154141561296a5760048c81548110151561290957fe5b9060005260206000209060060201600080820160006101000a81549073ffffffffffffffffffffffffffffffffffffffff02191690556001820160009055600282016000905560038201600090556004820160009055600582016000905550505b7fe2c51a7545742cdadcaa57e4b0768cf4c99d94d6570d0562bacc6d0d89a5b3398860000160009054906101000a900473ffffffffffffffffffffffffffffffffffffffff1689600101548a600201548b600301548c600401548d600501548c6040516129dd9796959493929190613a6e565b60405180910390a1505050505050505050505050565b6000816000600560008373ffffffffffffffffffffffffffffffffffffffff1673ffffffffffffffffffffffffffffffffffffffff1681526020019081526020016000205414151515612a7b576040517f08c379a0000000000000000000000000000000000000000000000000000000008152600401612a7290613c11565b60405180910390fd5b600560008473ffffffffffffffffffffffffffffffffffffffff1673ffffffffffffffffffffffffffffffffffffffff16815260200190815260200160002054915050919050565b612acb61125b565b1515612ad657600080fd5b612adf81613065565b50565b60056020528060005260406000206000915090505481565b6000828211151515612b0b57600080fd5b600082840390508091505092915050565b60006001831415612ca657813410151515612b6c576040517f08c379a0000000000000000000000000000000000000000000000000000000008152600401612b6390613c31565b60405180910390fd5b600060076000600660018703815481101515612b8457fe5b9060005260206000200160009054906101000a900473ffffffffffffffffffffffffffffffffffffffff1673ffffffffffffffffffffffffffffffffffffffff1673ffffffffffffffffffffffffffffffffffffffff16815260200190815260200160002060003373ffffffffffffffffffffffffffffffffffffffff1673ffffffffffffffffffffffffffffffffffffffff1681526020019081526020016000209050612c3f838260000154612fdc90919063ffffffff16565b81600001819055503373ffffffffffffffffffffffffffffffffffffffff166108fc612c748534612afa90919063ffffffff16565b9081150290604051600060405180830381858888f19350505050158015612c9f573d6000803e3d6000fd5b5050612fd2565b81600660018503815481101515612cb957fe5b9060005260206000200160009054906101000a900473ffffffffffffffffffffffffffffffffffffffff1673ffffffffffffffffffffffffffffffffffffffff1663dd62ed3e33306040518363ffffffff167c0100000000000000000000000000000000000000000000000000000000028152600401612d3a929190613923565b60206040518083038186803b158015612d5257600080fd5b505afa158015612d66573d6000803e3d6000fd5b505050506040513d601f19601f82011682018060405250612d8a91908101906133b9565b10151515612dcd576040517f08c379a0000000000000000000000000000000000000000000000000000000008152600401612dc490613c31565b60405180910390fd5b600660018403815481101515612ddf57fe5b9060005260206000200160009054906101000a900473ffffffffffffffffffffffffffffffffffffffff1673ffffffffffffffffffffffffffffffffffffffff166323b872dd3330856040518463ffffffff167c0100000000000000000000000000000000000000000000000000000000028152600401612e629392919061394c565b602060405180830381600087803b158015612e7c57600080fd5b505af1158015612e90573d6000803e3d6000fd5b505050506040513d601f19601f82011682018060405250612eb49190810190613367565b1515612ef5576040517f08c379a0000000000000000000000000000000000000000000000000000000008152600401612eec90613bb1565b60405180910390fd5b600060076000600660018703815481101515612f0d57fe5b9060005260206000200160009054906101000a900473ffffffffffffffffffffffffffffffffffffffff1673ffffffffffffffffffffffffffffffffffffffff1673ffffffffffffffffffffffffffffffffffffffff16815260200190815260200160002060003373ffffffffffffffffffffffffffffffffffffffff1673ffffffffffffffffffffffffffffffffffffffff1681526020019081526020016000209050612fc8838260000154612fdc90919063ffffffff16565b8160000181905550505b6001905092915050565b6000808284019050838110151515612ff357600080fd5b8091505092915050565b6000808211151561300d57600080fd5b6000828481151561301a57fe5b0490508091505092915050565b60008083141561303a576000905061305f565b6000828402905082848281151561304d57fe5b0414151561305a57600080fd5b809150505b92915050565b600073ffffffffffffffffffffffffffffffffffffffff168173ffffffffffffffffffffffffffffffffffffffff16141515156130a157600080fd5b8073ffffffffffffffffffffffffffffffffffffffff166000809054906101000a900473ffffffffffffffffffffffffffffffffffffffff1673ffffffffffffffffffffffffffffffffffffffff167f8be0079c531659141344cd1fd0a4f28419497f9722a3daafe3b4186f6b6457e060405160405180910390a3806000806101000a81548173ffffffffffffffffffffffffffffffffffffffff021916908373ffffffffffffffffffffffffffffffffffffffff16021790555050565b604080519081016040528060008152602001600081525090565b60c060405190810160405280600073ffffffffffffffffffffffffffffffffffffffff16815260200160008152602001600081526020016000815260200160008152602001600081525090565b60c060405190810160405280600073ffffffffffffffffffffffffffffffffffffffff16815260200160008152602001600081526020016000815260200160008152602001600081525090565b600061321f8235613de2565b905092915050565b60006132338251613df4565b905092915050565b60006132478235613e00565b905092915050565b600061325b8251613e00565b905092915050565b60006020828403121561327557600080fd5b600061328384828501613213565b91505092915050565b6000806040838503121561329f57600080fd5b60006132ad85828601613213565b92505060206132be85828601613213565b9150509250929050565b600080604083850312156132db57600080fd5b60006132e985828601613213565b92505060206132fa8582860161323b565b9150509250929050565b6000806000806080858703121561331a57600080fd5b600061332887828801613213565b94505060206133398782880161323b565b935050604061334a87828801613213565b925050606061335b8782880161323b565b91505092959194509250565b60006020828403121561337957600080fd5b600061338784828501613227565b91505092915050565b6000602082840312156133a257600080fd5b60006133b08482850161323b565b91505092915050565b6000602082840312156133cb57600080fd5b60006133d98482850161324f565b91505092915050565b600080604083850312156133f557600080fd5b60006134038582860161323b565b92505060206134148582860161323b565b9150509250929050565b61342781613e0a565b82525050565b61343681613d9a565b82525050565b600061344782613d52565b80845260208401935061345983613d2b565b60005b8281101561348b5761346f86835161342d565b61347882613d73565b915060208601955060018101905061345c565b50849250505092915050565b60006134a282613d5d565b8084526020840193506134b483613d38565b60005b828110156134e6576134ca868351613863565b6134d382613d80565b915060c0860195506001810190506134b7565b50849250505092915050565b60006134fd82613d68565b80845260208401935061350f83613d45565b60005b82811015613541576135258683516138de565b61352e82613d8d565b9150602086019550600181019050613512565b50849250505092915050565b61355681613dac565b82525050565b6000601482527f6f7264657220646f6573206e6f742065786973740000000000000000000000006020830152604082019050919050565b6000601a82527f617070726f76652074686520636f6e74726163742066697273740000000000006020830152604082019050919050565b6000601582527f4552433230207472616e73666572206661696c656400000000000000000000006020830152604082019050919050565b6000601182527f455243323020746f6b656e206572726f720000000000000000000000000000006020830152604082019050919050565b6000601c82527f6e6f7420656e6f7567682062616c616e636520617661696c61626c65000000006020830152604082019050919050565b6000601482527f546f6b656e20616c7265616479206578697374730000000000000000000000006020830152604082019050919050565b6000601482527f546f6b656e20646f6573206e6f742065786973740000000000000000000000006020830152604082019050919050565b6000601282527f6e6f7420656e6f7567682062616c616e636500000000000000000000000000006020830152604082019050919050565b6000601d82527f746865206f726465722068617320616c726561647920657870697265640000006020830152604082019050919050565b6000601f82527f616464726573732063616e6e6f742062652074686520302061646472657373006020830152604082019050919050565b6000601482527f746f6b656e20646f6573206e6f742065786973740000000000000000000000006020830152604082019050919050565b6040820160008201516137cf60008501826138de565b5060208201516137e260208501826138de565b50505050565b60c0820160008201516137fe600085018261342d565b50602082015161381160208501826138de565b50604082015161382460408501826138de565b50606082015161383760608501826138de565b50608082015161384a60808501826138de565b5060a082015161385d60a08501826138de565b50505050565b60c082016000820151613879600085018261342d565b50602082015161388c60208501826138de565b50604082015161389f60408501826138de565b5060608201516138b260608501826138de565b5060808201516138c560808501826138de565b5060a08201516138d860a08501826138de565b50505050565b6138e781613dd8565b82525050565b6000602082019050613902600083018461342d565b92915050565b600060208201905061391d600083018461341e565b92915050565b6000604082019050613938600083018561341e565b613945602083018461342d565b9392505050565b6000606082019050613961600083018661341e565b61396e602083018561342d565b61397b60408301846138de565b949350505050565b6000604082019050613998600083018561341e565b6139a560208301846138de565b9392505050565b600060c0820190506139c1600083018961341e565b6139ce60208301886138de565b6139db60408301876138de565b6139e860608301866138de565b6139f560808301856138de565b613a0260a08301846138de565b979650505050505050565b600060c082019050613a22600083018961342d565b613a2f60208301886138de565b613a3c60408301876138de565b613a4960608301866138de565b613a5660808301856138de565b613a6360a08301846138de565b979650505050505050565b600060e082019050613a83600083018a61342d565b613a9060208301896138de565b613a9d60408301886138de565b613aaa60608301876138de565b613ab760808301866138de565b613ac460a08301856138de565b613ad160c08301846138de565b98975050505050505050565b60006020820190508181036000830152613af7818461343c565b905092915050565b60006040820190508181036000830152613b198185613497565b90508181036020830152613b2d81846134f2565b90509392505050565b6000602082019050613b4b600083018461354d565b92915050565b60006020820190508181036000830152613b6a8161355c565b9050919050565b60006020820190508181036000830152613b8a81613593565b9050919050565b60006020820190508181036000830152613baa816135ca565b9050919050565b60006020820190508181036000830152613bca81613601565b9050919050565b60006020820190508181036000830152613bea81613638565b9050919050565b60006020820190508181036000830152613c0a8161366f565b9050919050565b60006020820190508181036000830152613c2a816136a6565b9050919050565b60006020820190508181036000830152613c4a816136dd565b9050919050565b60006020820190508181036000830152613c6a81613714565b9050919050565b60006020820190508181036000830152613c8a8161374b565b9050919050565b60006020820190508181036000830152613caa81613782565b9050919050565b6000604082019050613cc660008301846137b9565b92915050565b600060c082019050613ce160008301846137e8565b92915050565b6000602082019050613cfc60008301846138de565b92915050565b6000604082019050613d1760008301856138de565b613d2460208301846138de565b9392505050565b6000602082019050919050565b6000602082019050919050565b6000602082019050919050565b600081519050919050565b600081519050919050565b600081519050919050565b6000602082019050919050565b6000602082019050919050565b6000602082019050919050565b6000613da582613db8565b9050919050565b60008115159050919050565b600073ffffffffffffffffffffffffffffffffffffffff82169050919050565b6000819050919050565b6000613ded82613db8565b9050919050565b60008115159050919050565b6000819050919050565b6000613e1582613e1c565b9050919050565b6000613e2782613e2e565b9050919050565b6000613e3982613db8565b905091905056fea265627a7a72305820a55d9efd31b90bc6efc79ea57a67d817557cfb9044b522ad98f06ef6711e86896c6578706572696d656e74616cf50037",
  "source": "pragma solidity 0.5.2;\r\npragma experimental ABIEncoderV2;\r\n\r\nimport \"./SafeMath.sol\";\r\nimport \"./IERC20.sol\";\r\nimport \"./Ownable.sol\";\r\n\r\n\r\ncontract  MyExchange is Ownable {\r\n\r\n    using SafeMath for uint256;\r\n\r\n    event LogDepositToken(\r\n        address indexed _user,\r\n        address indexed _token,\r\n        uint256 _amount\r\n    );\r\n\r\n    event LogWithdrawToken(\r\n        address indexed _user,\r\n        address indexed _token,\r\n        uint256 _amount\r\n    );\r\n\r\n    event LogOrder(\r\n        address _orderMaker,\r\n        uint256 _haveTokenId,\r\n        uint256 _haveAmount,\r\n        uint256 _wantTokenId,\r\n        uint256 _wantAmount,\r\n        uint256 _creationBlock\r\n    );\r\n\r\n    event LogTrade(\r\n        address _orderMaker,\r\n        uint256 _haveTokenId,\r\n        uint256 _haveAmount,\r\n        uint256 _wantTokenId,\r\n        uint256 _wantAmount,\r\n        uint256 _creationBlock,\r\n        uint256 _amountFill\r\n    );\r\n\r\n    event LogCancelOrder(\r\n        address _orderMaker,\r\n        uint256 _haveTokenId,\r\n        uint256 _haveAmount,\r\n        uint256 _wantTokenId,\r\n        uint256 _wantAmount,\r\n        uint256 _creationBlock\r\n    );\r\n\r\n    struct Balance {\r\n        uint256 available;\r\n        uint256 locked;\r\n    }\r\n\r\n    struct Order {\r\n        address orderMaker;\r\n        uint256 haveTokenId;\r\n        uint256 haveAmount;\r\n        uint256 wantTokenId;\r\n        uint256 wantAmount;\r\n        uint256 creationBlock;\r\n    }\r\n\r\n    uint256 public arrayLength;\r\n    uint256 public expirationBlocks;\r\n    uint256 public lastExpiredOrder;\r\n    Order[] public openOrders;\r\n\r\n    mapping (address => uint256) public tokenIds;\r\n    address[] public tokenAddresses;\r\n\r\n    mapping (address => mapping (address => Balance)) public userBalanceForToken;\r\n\r\n    constructor() public {\r\n        tokenIds[address(0)] = 1;\r\n        tokenAddresses.push(address(0));\r\n        expirationBlocks = 5000;\r\n    }\r\n\r\n    modifier orderExists(uint256 _orderIndex) {\r\n        require(arrayLength > 0 && _orderIndex < (arrayLength), \"order does not exist\");\r\n        require(openOrders[_orderIndex].haveAmount != 0, \"order does not exist\");\r\n        _;\r\n    }\r\n\r\n    modifier onlyOrderMaker(uint256 _orderIndex) {\r\n        require(openOrders[_orderIndex].orderMaker == msg.sender);\r\n        _;\r\n    }\r\n\r\n    modifier orderNotExpired(uint256 _orderIndex) {\r\n        if (_orderIndex != 0) {\r\n            require(_orderIndex > lastExpiredOrder, \"the order has already expired\");\r\n        }\r\n        require(\r\n            (openOrders[_orderIndex].creationBlock).add(expirationBlocks) >= block.number,\r\n            \"the order has already expired\"\r\n        );\r\n        _;\r\n    }\r\n\r\n    modifier onlyTokens(address _tokenAddress) {\r\n        require(_tokenAddress != address(0), \"address cannot be the 0 address\");\r\n        _;\r\n    }\r\n\r\n    modifier tokenExists(address _tokenAddress) {\r\n        require(tokenIds[_tokenAddress] != 0, \"Token does not exist\");\r\n        _;\r\n    }\r\n\r\n    modifier tokenNotExists(address _tokenAddress) {\r\n        require(tokenIds[_tokenAddress] == 0, \"Token already exists\");\r\n        _;\r\n    }\r\n\r\n    function addToken(address _tokenAddress) external onlyOwner tokenNotExists(_tokenAddress) {\r\n        tokenAddresses.push(_tokenAddress);\r\n        tokenIds[_tokenAddress] = tokenAddresses.length;\r\n    }\r\n\r\n    /// Function to receive ETH\r\n    /// Allows the contract to manage the Ether the user deposits\r\n    /// Triggers deposit event.\r\n    function deposit() external payable {\r\n        Balance storage b = userBalanceForToken[address(0)][msg.sender];\r\n        b.available = (b.available).add(msg.value);\r\n        emit LogDepositToken(msg.sender, address(0), msg.value);\r\n    }\r\n\r\n    /// Function to withdraw ETH\r\n    /// msg.sender withdraws _amount ETH from the contract\r\n    /// triggers withdraw event\r\n    function withdraw(uint256 _amount) external {\r\n        Balance storage b = userBalanceForToken[address(0)][msg.sender];\r\n        require(b.available >= _amount, \"not enough balance available\");\r\n        b.available = (b.available).sub(_amount);\r\n        msg.sender.transfer(_amount);\r\n        emit LogWithdrawToken(msg.sender, address(0), _amount);\r\n    }\r\n\r\n    /// Function to send _amount of specific _token to contract\r\n    /// This allows the contrct to spend _amount tokens on your behalf.\r\n    /// msg.sender has to call approve on this contract first.\r\n    /// triggers DepositToken event.\r\n    function depositToken(address _token, uint256 _amount) external onlyTokens(_token) tokenExists(_token) {\r\n        require(_checkBank(tokenIds[_token], _amount), \"approve the contract first\");\r\n        emit LogDepositToken(msg.sender, _token, _amount);\r\n    }\r\n\r\n    /// function to withdraw _amount of specific _token from contract\r\n    /// triggers WithdrawToken event\r\n    function withdrawToken(address _token, uint256 _amount) external onlyTokens(_token) tokenExists(_token) {\r\n        Balance storage balance = userBalanceForToken[_token][msg.sender];\r\n        require(balance.available >= _amount, \"not enough balance available\");\r\n        balance.available = (balance.available).sub(_amount);\r\n        require(IERC20(_token).transfer(msg.sender, _amount), \"ERC20 transfer failed\");\r\n        emit LogWithdrawToken(msg.sender, _token, _amount);\r\n    }\r\n\r\n    function placeOrder(\r\n        address _haveToken,\r\n        uint256 _haveAmount,\r\n        address _wantToken,\r\n        uint256 _wantAmount\r\n    ) external payable tokenExists(_haveToken) tokenExists(_wantToken) {\r\n        Balance storage balance = userBalanceForToken[_haveToken][msg.sender];\r\n        /// if availabe is not enough, check for other sources of balance.\r\n        if (balance.available < _haveAmount) {\r\n            require(\r\n                _checkBank(tokenIds[_haveToken], _haveAmount.sub(balance.available)),\r\n                \"not enough balance\"\r\n            );\r\n        }\r\n        /// lock assets\r\n        balance.available = (balance.available).sub(_haveAmount);\r\n        balance.locked = (balance.locked).add(_haveAmount);\r\n        /// update orders\r\n        openOrders.push(Order({\r\n            orderMaker: msg.sender,\r\n            haveTokenId: tokenIds[_haveToken],\r\n            haveAmount: _haveAmount,\r\n            wantTokenId: tokenIds[_wantToken],\r\n            wantAmount: _wantAmount,\r\n            creationBlock: block.number\r\n        }));\r\n        arrayLength = arrayLength + 1;\r\n        /// emit event\r\n        emit LogOrder(msg.sender, tokenIds[_haveToken], _haveAmount, tokenIds[_wantToken], _wantAmount, block.number);\r\n    }\r\n\r\n    function cancelOrder(\r\n        uint256 _orderIndex\r\n    ) external orderExists(_orderIndex) onlyOrderMaker(_orderIndex) orderNotExpired(_orderIndex) {\r\n        Order storage order = openOrders[_orderIndex];\r\n        /// unlock locked assets\r\n        Balance storage balance = userBalanceForToken[tokenAddresses[order.haveTokenId-1]][msg.sender];\r\n        balance.locked = (balance.locked).sub(order.haveAmount);\r\n        balance.available = (balance.available).add(order.haveAmount);\r\n        /// emit event\r\n        emit LogCancelOrder(\r\n            order.orderMaker,\r\n            order.haveTokenId,\r\n            order.haveAmount,\r\n            order.wantTokenId,\r\n            order.wantAmount,\r\n            order.creationBlock\r\n        );\r\n        /// delete order\r\n        delete openOrders[_orderIndex];\r\n    }\r\n\r\n    function executeOrder(\r\n        uint256 _orderIndex,\r\n        uint256 _amountFill\r\n    ) external orderExists(_orderIndex) orderNotExpired(_orderIndex) {\r\n        Order storage order = openOrders[_orderIndex];\r\n        /// check if taker has enough balance\r\n        Balance storage takerHaveTokenBalance = userBalanceForToken[tokenAddresses[order.wantTokenId-1]][msg.sender];\r\n        /// if availabe is not enough, check for other sources of balance.\r\n        if (takerHaveTokenBalance.available < _amountFill) {\r\n            require(\r\n                _checkBank(order.haveTokenId, _amountFill.sub(takerHaveTokenBalance.available)),\r\n                \"not enough balance\"\r\n            );\r\n        }\r\n        /// check if _amountFill is bigger than order wantAmount then calculate cost and change\r\n        uint256 takerCost = _amountFill;\r\n        if (_amountFill > order.wantAmount) {\r\n            takerCost = order.wantAmount;\r\n            uint256 takerChange = _amountFill.sub(order.wantAmount);\r\n            takerHaveTokenBalance.available = (takerHaveTokenBalance.available).add(takerChange);\r\n        }\r\n        /// Calculate the cost for the maker\r\n        uint256  haveToWantRatio = (order.haveAmount).div(order.wantAmount);\r\n        uint256  makerCost = haveToWantRatio.mul(takerCost);\r\n        /// update haveToken balance for maker and taker\r\n        Balance storage makerHaveTokenBalance = userBalanceForToken[tokenAddresses[order.wantTokenId-1]][msg.sender];\r\n        makerHaveTokenBalance.locked = (makerHaveTokenBalance.locked).sub(makerCost);\r\n        takerHaveTokenBalance.available = (takerHaveTokenBalance.available).sub(takerCost);\r\n        /// update wantToken balance for maker and taker\r\n        Balance storage makerWantTokenBalance = userBalanceForToken[tokenAddresses[order.wantTokenId-1]][order.orderMaker];\r\n        makerWantTokenBalance.available = (makerWantTokenBalance.available).add(takerCost);\r\n        Balance storage takerWantTokenBalance = userBalanceForToken[tokenAddresses[order.haveTokenId-1]][msg.sender];\r\n        takerWantTokenBalance.available = (takerWantTokenBalance.available).add(makerCost);\r\n        /// update order\r\n        order.wantAmount = (order.wantAmount).sub(takerCost);\r\n        order.haveAmount = (order.haveAmount).sub(makerCost);\r\n        /// if the order is completely filled, delete it\r\n        if (order.wantAmount == 0) {\r\n            delete openOrders[_orderIndex];\r\n        }\r\n        /// emit event\r\n        emit LogTrade(\r\n            order.orderMaker, order.haveTokenId,\r\n            order.haveAmount, order.wantTokenId,\r\n            order.wantAmount, order.creationBlock,\r\n            takerCost\r\n        );\r\n    }\r\n\r\n    function setExpiration(uint256 _expiraton) external onlyOwner {\r\n        expirationBlocks = _expiraton;\r\n    }\r\n\r\n    function deleteExpiredOrders() external onlyOwner {\r\n        for (uint256 i = lastExpiredOrder; i < arrayLength; i++) {\r\n            if (openOrders[i].creationBlock == 0) continue;\r\n            if ((openOrders[i].creationBlock).add(expirationBlocks) <= block.number) {\r\n                delete openOrders[i];\r\n            } else {\r\n                lastExpiredOrder = i;\r\n                break;\r\n            }\r\n        }\r\n    }\r\n\r\n    function balanceOf(address _token) public view returns (uint256) {\r\n        return (IERC20(_token).balanceOf(msg.sender));\r\n    }\r\n\r\n    function getUserBalanceForToken(address _token) public view returns (Balance memory) {\r\n        return(userBalanceForToken[_token][msg.sender]);\r\n    }\r\n\r\n    function getTokenId(address _token) public view tokenExists(_token) returns (uint256) {\r\n        return tokenIds[_token];\r\n    }\r\n\r\n    function getTokenAddress(uint256 _tokenId) public view returns (address) {\r\n        require(_tokenId != 0 && _tokenId <= tokenAddresses.length, \"token does not exist\");\r\n        return tokenAddresses[_tokenId - 1];\r\n    }\r\n\r\n    function getOrder(uint256 _orderIndex) public view orderExists(_orderIndex) returns (Order memory) {\r\n        return openOrders[_orderIndex];\r\n    }\r\n\r\n    function getTokens() public view returns (address[] memory) {\r\n        address[] memory tokens = new address[](tokenAddresses.length);\r\n        uint256 counter = 0;\r\n        for (uint256 i = 0; i < tokenAddresses.length; i++) {\r\n            tokens[counter++] = tokenAddresses[i];\r\n        }\r\n        return tokens;\r\n    }\r\n\r\n    function getOpenOrders() public view returns (Order[] memory, uint256[] memory) {\r\n        uint256 size = arrayLength.sub(lastExpiredOrder);\r\n        Order[] memory order = new Order[](size);\r\n        uint256[] memory realIndices = new uint[](size);\r\n        uint256 counter = 0;\r\n        for (uint256 i = lastExpiredOrder; i < arrayLength; i++) {\r\n            if (openOrders[i].wantAmount == 0) continue;\r\n            order[counter] = openOrders[i];\r\n            realIndices[counter++] = i;\r\n        }\r\n        return (order, realIndices);\r\n    }\r\n\r\n    function _checkBank(uint256 _tokenId, uint256 _amountNeeded) internal returns (bool) {\r\n        if (_tokenId == 1) {\r\n            require(msg.value >= _amountNeeded, \"not enough balance\");\r\n            Balance storage balance = userBalanceForToken[tokenAddresses[_tokenId-1]][msg.sender];\r\n            balance.available = balance.available.add(_amountNeeded);\r\n            msg.sender.transfer(msg.value.sub(_amountNeeded));\r\n        } else {\r\n            require(\r\n                IERC20(tokenAddresses[_tokenId-1]).allowance(msg.sender, address(this)) >= _amountNeeded,\r\n                \"not enough balance\"\r\n            );\r\n            require(\r\n                IERC20(tokenAddresses[_tokenId-1]).transferFrom(msg.sender, address(this), _amountNeeded),\r\n                \"ERC20 token error\"\r\n            );\r\n            Balance storage balance = userBalanceForToken[tokenAddresses[_tokenId-1]][msg.sender];\r\n            balance.available = balance.available.add(_amountNeeded);\r\n        }\r\n        return true;\r\n    }\r\n}\r\n",
  "sourcePath": "C:/Users/Madness/Desktop/TFG/exchange/exchange/contracts/MyExchange.sol",
  "compiler": {
    "name": "solc",
    "version": "0.5.2+commit.1df8f40c.Emscripten.clang"
  },
  "schemaVersion": "3.0.2",
  "updatedAt": "2019-05-11T16:11:11.577Z",
  "devdoc": {
    "methods": {
      "isOwner()": {
        "return": "true if `msg.sender` is the owner of the contract.\r"
      },
      "owner()": {
        "return": "the address of the owner.\r"
      },
      "renounceOwnership()": {
        "details": "Allows the current owner to relinquish control of the contract.\r"
      },
      "transferOwnership(address)": {
        "details": "Allows the current owner to transfer control of the contract to a newOwner.\r",
        "params": {
          "newOwner": "The address to transfer ownership to.\r"
        }
      }
    }
  },
  "userdoc": {
    "methods": {
      "deposit()": {
        "notice": "Triggers deposit event."
      },
      "depositToken(address,uint256)": {
        "notice": "triggers DepositToken event."
      },
      "renounceOwnership()": {
        "notice": "Renouncing to ownership will leave the contract without an owner.\r It will not be possible to call the functions with the `onlyOwner`\r modifier anymore.\r"
      },
      "withdraw(uint256)": {
        "notice": "triggers withdraw event"
      },
      "withdrawToken(address,uint256)": {
        "notice": "triggers WithdrawToken event"
      }
    }
  }
}