{
  "contractName": "MyExchange",
  "abi": [
    {
      "constant": true,
      "inputs": [
        {
          "name": "",
          "type": "uint256"
        }
      ],
      "name": "openOrders",
      "outputs": [
        {
          "name": "orderMaker",
          "type": "address"
        },
        {
          "name": "haveTokenId",
          "type": "uint256"
        },
        {
          "name": "haveAmount",
          "type": "uint256"
        },
        {
          "name": "wantTokenId",
          "type": "uint256"
        },
        {
          "name": "wantAmount",
          "type": "uint256"
        },
        {
          "name": "creationBlock",
          "type": "uint256"
        }
      ],
      "payable": false,
      "stateMutability": "view",
      "type": "function",
      "signature": "0x447c1e8c"
    },
    {
      "constant": false,
      "inputs": [],
      "name": "renounceOwnership",
      "outputs": [],
      "payable": false,
      "stateMutability": "nonpayable",
      "type": "function",
      "signature": "0x715018a6"
    },
    {
      "constant": true,
      "inputs": [],
      "name": "owner",
      "outputs": [
        {
          "name": "",
          "type": "address"
        }
      ],
      "payable": false,
      "stateMutability": "view",
      "type": "function",
      "signature": "0x8da5cb5b"
    },
    {
      "constant": true,
      "inputs": [],
      "name": "isOwner",
      "outputs": [
        {
          "name": "",
          "type": "bool"
        }
      ],
      "payable": false,
      "stateMutability": "view",
      "type": "function",
      "signature": "0x8f32d59b"
    },
    {
      "constant": true,
      "inputs": [],
      "name": "lastExpiredOrder",
      "outputs": [
        {
          "name": "",
          "type": "uint256"
        }
      ],
      "payable": false,
      "stateMutability": "view",
      "type": "function",
      "signature": "0x9393cbf5"
    },
    {
      "constant": true,
      "inputs": [],
      "name": "expirationBlocks",
      "outputs": [
        {
          "name": "",
          "type": "uint256"
        }
      ],
      "payable": false,
      "stateMutability": "view",
      "type": "function",
      "signature": "0xa71f7f1c"
    },
    {
      "constant": true,
      "inputs": [
        {
          "name": "",
          "type": "address"
        },
        {
          "name": "",
          "type": "address"
        }
      ],
      "name": "userBalanceForToken",
      "outputs": [
        {
          "name": "available",
          "type": "uint256"
        },
        {
          "name": "locked",
          "type": "uint256"
        }
      ],
      "payable": false,
      "stateMutability": "view",
      "type": "function",
      "signature": "0xb009e4d3"
    },
    {
      "constant": true,
      "inputs": [],
      "name": "arrayLength",
      "outputs": [
        {
          "name": "",
          "type": "uint256"
        }
      ],
      "payable": false,
      "stateMutability": "view",
      "type": "function",
      "signature": "0xe554482e"
    },
    {
      "constant": true,
      "inputs": [
        {
          "name": "",
          "type": "uint256"
        }
      ],
      "name": "tokenAddresses",
      "outputs": [
        {
          "name": "",
          "type": "address"
        }
      ],
      "payable": false,
      "stateMutability": "view",
      "type": "function",
      "signature": "0xe5df8b84"
    },
    {
      "constant": false,
      "inputs": [
        {
          "name": "newOwner",
          "type": "address"
        }
      ],
      "name": "transferOwnership",
      "outputs": [],
      "payable": false,
      "stateMutability": "nonpayable",
      "type": "function",
      "signature": "0xf2fde38b"
    },
    {
      "constant": true,
      "inputs": [
        {
          "name": "",
          "type": "address"
        }
      ],
      "name": "tokenIds",
      "outputs": [
        {
          "name": "",
          "type": "uint256"
        }
      ],
      "payable": false,
      "stateMutability": "view",
      "type": "function",
      "signature": "0xfc97a303"
    },
    {
      "inputs": [],
      "payable": false,
      "stateMutability": "nonpayable",
      "type": "constructor",
      "signature": "constructor"
    },
    {
      "anonymous": false,
      "inputs": [
        {
          "indexed": true,
          "name": "_user",
          "type": "address"
        },
        {
          "indexed": true,
          "name": "_token",
          "type": "address"
        },
        {
          "indexed": false,
          "name": "_amount",
          "type": "uint256"
        }
      ],
      "name": "LogDepositToken",
      "type": "event",
      "signature": "0xb024cc5591038c18f7e2348d474092b453a32212dd1ebcc0370c4ac2e42cce43"
    },
    {
      "anonymous": false,
      "inputs": [
        {
          "indexed": true,
          "name": "_user",
          "type": "address"
        },
        {
          "indexed": true,
          "name": "_token",
          "type": "address"
        },
        {
          "indexed": false,
          "name": "_amount",
          "type": "uint256"
        }
      ],
      "name": "LogWithdrawToken",
      "type": "event",
      "signature": "0x46ae78bc7b198b8b534ca0070d125569ac5f955976841c4343223079f3abf0de"
    },
    {
      "anonymous": false,
      "inputs": [
        {
          "indexed": false,
          "name": "_orderMaker",
          "type": "address"
        },
        {
          "indexed": false,
          "name": "_haveTokenId",
          "type": "uint256"
        },
        {
          "indexed": false,
          "name": "_haveAmount",
          "type": "uint256"
        },
        {
          "indexed": false,
          "name": "_wantTokenId",
          "type": "uint256"
        },
        {
          "indexed": false,
          "name": "_wantAmount",
          "type": "uint256"
        },
        {
          "indexed": false,
          "name": "_creationBlock",
          "type": "uint256"
        }
      ],
      "name": "LogOrder",
      "type": "event",
      "signature": "0xd199d758a27cf650a12cc585bb50b544742b93e08d3bba05f85a1328d9d1ee90"
    },
    {
      "anonymous": false,
      "inputs": [
        {
          "indexed": false,
          "name": "_orderMaker",
          "type": "address"
        },
        {
          "indexed": false,
          "name": "_haveTokenId",
          "type": "uint256"
        },
        {
          "indexed": false,
          "name": "_haveAmount",
          "type": "uint256"
        },
        {
          "indexed": false,
          "name": "_wantTokenId",
          "type": "uint256"
        },
        {
          "indexed": false,
          "name": "_wantAmount",
          "type": "uint256"
        },
        {
          "indexed": false,
          "name": "_creationBlock",
          "type": "uint256"
        },
        {
          "indexed": false,
          "name": "_amountFill",
          "type": "uint256"
        }
      ],
      "name": "LogTrade",
      "type": "event",
      "signature": "0xe2c51a7545742cdadcaa57e4b0768cf4c99d94d6570d0562bacc6d0d89a5b339"
    },
    {
      "anonymous": false,
      "inputs": [
        {
          "indexed": false,
          "name": "_orderMaker",
          "type": "address"
        },
        {
          "indexed": false,
          "name": "_haveTokenId",
          "type": "uint256"
        },
        {
          "indexed": false,
          "name": "_haveAmount",
          "type": "uint256"
        },
        {
          "indexed": false,
          "name": "_wantTokenId",
          "type": "uint256"
        },
        {
          "indexed": false,
          "name": "_wantAmount",
          "type": "uint256"
        },
        {
          "indexed": false,
          "name": "_creationBlock",
          "type": "uint256"
        }
      ],
      "name": "LogCancelOrder",
      "type": "event",
      "signature": "0x45caffda464ddd8d2e49c5ac57db800a2160d1bc35d3b7757ee94191cd28d90d"
    },
    {
      "anonymous": false,
      "inputs": [
        {
          "indexed": true,
          "name": "previousOwner",
          "type": "address"
        },
        {
          "indexed": true,
          "name": "newOwner",
          "type": "address"
        }
      ],
      "name": "OwnershipTransferred",
      "type": "event",
      "signature": "0x8be0079c531659141344cd1fd0a4f28419497f9722a3daafe3b4186f6b6457e0"
    },
    {
      "constant": false,
      "inputs": [
        {
          "name": "_tokenAddress",
          "type": "address"
        }
      ],
      "name": "addToken",
      "outputs": [],
      "payable": false,
      "stateMutability": "nonpayable",
      "type": "function",
      "signature": "0xd48bfca7"
    },
    {
      "constant": false,
      "inputs": [],
      "name": "deposit",
      "outputs": [],
      "payable": true,
      "stateMutability": "payable",
      "type": "function",
      "signature": "0xd0e30db0"
    },
    {
      "constant": false,
      "inputs": [
        {
          "name": "_amount",
          "type": "uint256"
        }
      ],
      "name": "withdraw",
      "outputs": [],
      "payable": false,
      "stateMutability": "nonpayable",
      "type": "function",
      "signature": "0x2e1a7d4d"
    },
    {
      "constant": false,
      "inputs": [
        {
          "name": "_token",
          "type": "address"
        },
        {
          "name": "_amount",
          "type": "uint256"
        }
      ],
      "name": "depositToken",
      "outputs": [],
      "payable": false,
      "stateMutability": "nonpayable",
      "type": "function",
      "signature": "0x338b5dea"
    },
    {
      "constant": false,
      "inputs": [
        {
          "name": "_token",
          "type": "address"
        },
        {
          "name": "_amount",
          "type": "uint256"
        }
      ],
      "name": "withdrawToken",
      "outputs": [],
      "payable": false,
      "stateMutability": "nonpayable",
      "type": "function",
      "signature": "0x9e281a98"
    },
    {
      "constant": false,
      "inputs": [
        {
          "name": "_haveToken",
          "type": "address"
        },
        {
          "name": "_haveAmount",
          "type": "uint256"
        },
        {
          "name": "_wantToken",
          "type": "address"
        },
        {
          "name": "_wantAmount",
          "type": "uint256"
        }
      ],
      "name": "placeOrder",
      "outputs": [],
      "payable": true,
      "stateMutability": "payable",
      "type": "function",
      "signature": "0xafe18413"
    },
    {
      "constant": false,
      "inputs": [
        {
          "name": "_orderIndex",
          "type": "uint256"
        }
      ],
      "name": "cancelOrder",
      "outputs": [],
      "payable": false,
      "stateMutability": "nonpayable",
      "type": "function",
      "signature": "0x514fcac7"
    },
    {
      "constant": false,
      "inputs": [
        {
          "name": "_orderIndex",
          "type": "uint256"
        },
        {
          "name": "_amountFill",
          "type": "uint256"
        }
      ],
      "name": "executeOrder",
      "outputs": [],
      "payable": false,
      "stateMutability": "nonpayable",
      "type": "function",
      "signature": "0xef46e0ca"
    },
    {
      "constant": false,
      "inputs": [
        {
          "name": "_expiraton",
          "type": "uint256"
        }
      ],
      "name": "setExpiration",
      "outputs": [],
      "payable": false,
      "stateMutability": "nonpayable",
      "type": "function",
      "signature": "0x515a20ba"
    },
    {
      "constant": false,
      "inputs": [],
      "name": "deleteExpiredOrders",
      "outputs": [],
      "payable": false,
      "stateMutability": "nonpayable",
      "type": "function",
      "signature": "0x8cbfd95b"
    },
    {
      "constant": true,
      "inputs": [
        {
          "name": "_token",
          "type": "address"
        }
      ],
      "name": "balanceOf",
      "outputs": [
        {
          "name": "",
          "type": "uint256"
        }
      ],
      "payable": false,
      "stateMutability": "view",
      "type": "function",
      "signature": "0x70a08231"
    },
    {
      "constant": true,
      "inputs": [
        {
          "name": "_token",
          "type": "address"
        }
      ],
      "name": "getUserBalanceForToken",
      "outputs": [
        {
          "components": [
            {
              "name": "available",
              "type": "uint256"
            },
            {
              "name": "locked",
              "type": "uint256"
            }
          ],
          "name": "",
          "type": "tuple"
        }
      ],
      "payable": false,
      "stateMutability": "view",
      "type": "function",
      "signature": "0xaadcc9c6"
    },
    {
      "constant": true,
      "inputs": [
        {
          "name": "_token",
          "type": "address"
        }
      ],
      "name": "getTokenId",
      "outputs": [
        {
          "name": "",
          "type": "uint256"
        }
      ],
      "payable": false,
      "stateMutability": "view",
      "type": "function",
      "signature": "0xf1537686"
    },
    {
      "constant": true,
      "inputs": [
        {
          "name": "_tokenId",
          "type": "uint256"
        }
      ],
      "name": "getTokenAddress",
      "outputs": [
        {
          "name": "",
          "type": "address"
        }
      ],
      "payable": false,
      "stateMutability": "view",
      "type": "function",
      "signature": "0x67ccdf38"
    },
    {
      "constant": true,
      "inputs": [
        {
          "name": "_orderIndex",
          "type": "uint256"
        }
      ],
      "name": "getOrder",
      "outputs": [
        {
          "components": [
            {
              "name": "orderMaker",
              "type": "address"
            },
            {
              "name": "haveTokenId",
              "type": "uint256"
            },
            {
              "name": "haveAmount",
              "type": "uint256"
            },
            {
              "name": "wantTokenId",
              "type": "uint256"
            },
            {
              "name": "wantAmount",
              "type": "uint256"
            },
            {
              "name": "creationBlock",
              "type": "uint256"
            }
          ],
          "name": "",
          "type": "tuple"
        }
      ],
      "payable": false,
      "stateMutability": "view",
      "type": "function",
      "signature": "0xd09ef241"
    },
    {
      "constant": true,
      "inputs": [],
      "name": "getTokens",
      "outputs": [
        {
          "name": "",
          "type": "address[]"
        }
      ],
      "payable": false,
      "stateMutability": "view",
      "type": "function",
      "signature": "0xaa6ca808"
    },
    {
      "constant": true,
      "inputs": [],
      "name": "getOpenOrders",
      "outputs": [
        {
          "components": [
            {
              "name": "orderMaker",
              "type": "address"
            },
            {
              "name": "haveTokenId",
              "type": "uint256"
            },
            {
              "name": "haveAmount",
              "type": "uint256"
            },
            {
              "name": "wantTokenId",
              "type": "uint256"
            },
            {
              "name": "wantAmount",
              "type": "uint256"
            },
            {
              "name": "creationBlock",
              "type": "uint256"
            }
          ],
          "name": "",
          "type": "tuple[]"
        },
        {
          "name": "",
          "type": "uint256[]"
        }
      ],
      "payable": false,
      "stateMutability": "view",
      "type": "function",
      "signature": "0xdbe5bab5"
    }
  ],
  "bytecode": "0x608060405234801561001057600080fd5b50336000806101000a81548173ffffffffffffffffffffffffffffffffffffffff021916908373ffffffffffffffffffffffffffffffffffffffff1602179055506000809054906101000a900473ffffffffffffffffffffffffffffffffffffffff1673ffffffffffffffffffffffffffffffffffffffff16600073ffffffffffffffffffffffffffffffffffffffff167f8be0079c531659141344cd1fd0a4f28419497f9722a3daafe3b4186f6b6457e060405160405180910390a36001600560008073ffffffffffffffffffffffffffffffffffffffff1673ffffffffffffffffffffffffffffffffffffffff168152602001908152602001600020819055506006600090806001815401808255809150509060018203906000526020600020016000909192909190916101000a81548173ffffffffffffffffffffffffffffffffffffffff021916908373ffffffffffffffffffffffffffffffffffffffff160217905550506113886002819055506140a7806101916000396000f3fe6080604052600436106101d4576000357c010000000000000000000000000000000000000000000000000000000090048063aa6ca80811610109578063dbe5bab5116100a7578063ef46e0ca11610081578063ef46e0ca14610602578063f15376861461062b578063f2fde38b14610668578063fc97a30314610691576101d4565b8063dbe5bab51461056e578063e554482e1461059a578063e5df8b84146105c5576101d4565b8063b009e4d3116100e3578063b009e4d3146104c0578063d09ef241146104fe578063d0e30db01461053b578063d48bfca714610545576101d4565b8063aa6ca8081461043c578063aadcc9c614610467578063afe18413146104a4576101d4565b8063715018a6116101765780638f32d59b116101505780638f32d59b146103925780639393cbf5146103bd5780639e281a98146103e8578063a71f7f1c14610411576101d4565b8063715018a6146103395780638cbfd95b146103505780638da5cb5b14610367576101d4565b8063514fcac7116101b2578063514fcac71461026d578063515a20ba1461029657806367ccdf38146102bf57806370a08231146102fc576101d4565b80632e1a7d4d146101d9578063338b5dea14610202578063447c1e8c1461022b575b600080fd5b3480156101e557600080fd5b5061020060048036036101fb9190810190613566565b6106ce565b005b34801561020e57600080fd5b506102296004803603610224919081019061349e565b610867565b005b34801561023757600080fd5b50610252600480360361024d9190810190613566565b610a55565b60405161026496959493929190613c1a565b60405180910390f35b34801561027957600080fd5b50610294600480360361028f9190810190613566565b610ac0565b005b3480156102a257600080fd5b506102bd60048036036102b89190810190613566565b610ed8565b005b3480156102cb57600080fd5b506102e660048036036102e19190810190613566565b610ef5565b6040516102f39190613afa565b60405180910390f35b34801561030857600080fd5b50610323600480360361031e9190810190613439565b610f91565b6040516103309190613f14565b60405180910390f35b34801561034557600080fd5b5061034e61103f565b005b34801561035c57600080fd5b50610365611111565b005b34801561037357600080fd5b5061037c6112fe565b6040516103899190613afa565b60405180910390f35b34801561039e57600080fd5b506103a7611327565b6040516103b49190613d43565b60405180910390f35b3480156103c957600080fd5b506103d261137e565b6040516103df9190613f14565b60405180910390f35b3480156103f457600080fd5b5061040f600480360361040a919081019061349e565b611384565b005b34801561041d57600080fd5b506104266116bb565b6040516104339190613f14565b60405180910390f35b34801561044857600080fd5b506104516116c1565b60405161045e9190613cea565b60405180910390f35b34801561047357600080fd5b5061048e60048036036104899190810190613439565b6117b3565b60405161049b9190613ede565b60405180910390f35b6104be60048036036104b991908101906134da565b61185d565b005b3480156104cc57600080fd5b506104e760048036036104e29190810190613462565b611d12565b6040516104f5929190613f2f565b60405180910390f35b34801561050a57600080fd5b5061052560048036036105209190810190613566565b611d43565b6040516105329190613ef9565b60405180910390f35b610543611ebf565b005b34801561055157600080fd5b5061056c60048036036105679190810190613439565b611fc7565b005b34801561057a57600080fd5b50610583612112565b604051610591929190613d0c565b60405180910390f35b3480156105a657600080fd5b506105af6122f4565b6040516105bc9190613f14565b60405180910390f35b3480156105d157600080fd5b506105ec60048036036105e79190810190613566565b6122fa565b6040516105f99190613afa565b60405180910390f35b34801561060e57600080fd5b50610629600480360361062491908101906135b8565b612338565b005b34801561063757600080fd5b50610652600480360361064d9190810190613439565b612abf565b60405161065f9190613f14565b60405180910390f35b34801561067457600080fd5b5061068f600480360361068a9190810190613439565b612b8f565b005b34801561069d57600080fd5b506106b860048036036106b39190810190613439565b612bae565b6040516106c59190613f14565b60405180910390f35b6000600760008073ffffffffffffffffffffffffffffffffffffffff1673ffffffffffffffffffffffffffffffffffffffff16815260200190815260200160002060003373ffffffffffffffffffffffffffffffffffffffff1673ffffffffffffffffffffffffffffffffffffffff168152602001908152602001600020905081816000015410151515610797576040517f08c379a000000000000000000000000000000000000000000000000000000000815260040161078e90613dde565b60405180910390fd5b6107ae828260000154612bc690919063ffffffff16565b81600001819055503373ffffffffffffffffffffffffffffffffffffffff166108fc839081150290604051600060405180830381858888f193505050501580156107fc573d6000803e3d6000fd5b50600073ffffffffffffffffffffffffffffffffffffffff163373ffffffffffffffffffffffffffffffffffffffff167f46ae78bc7b198b8b534ca0070d125569ac5f955976841c4343223079f3abf0de8460405161085b9190613f14565b60405180910390a35050565b81600073ffffffffffffffffffffffffffffffffffffffff168173ffffffffffffffffffffffffffffffffffffffff16141515156108da576040517f08c379a00000000000000000000000000000000000000000000000000000000081526004016108d190613e9e565b60405180910390fd5b826000600560008373ffffffffffffffffffffffffffffffffffffffff1673ffffffffffffffffffffffffffffffffffffffff1681526020019081526020016000205414151515610960576040517f08c379a000000000000000000000000000000000000000000000000000000000815260040161095790613e1e565b60405180910390fd5b6109a9600560008673ffffffffffffffffffffffffffffffffffffffff1673ffffffffffffffffffffffffffffffffffffffff1681526020019081526020016000205484612be8565b15156109ea576040517f08c379a00000000000000000000000000000000000000000000000000000000081526004016109e190613d7e565b60405180910390fd5b8373ffffffffffffffffffffffffffffffffffffffff163373ffffffffffffffffffffffffffffffffffffffff167fb024cc5591038c18f7e2348d474092b453a32212dd1ebcc0370c4ac2e42cce4385604051610a479190613f14565b60405180910390a350505050565b600481815481101515610a6457fe5b90600052602060002090600602016000915090508060000160009054906101000a900473ffffffffffffffffffffffffffffffffffffffff16908060010154908060020154908060030154908060040154908060050154905086565b806000600154118015610ad4575060015481105b1515610b15576040517f08c379a0000000000000000000000000000000000000000000000000000000008152600401610b0c90613d5e565b60405180910390fd5b6000600482815481101515610b2657fe5b90600052602060002090600602016002015414151515610b7b576040517f08c379a0000000000000000000000000000000000000000000000000000000008152600401610b7290613d5e565b60405180910390fd5b813373ffffffffffffffffffffffffffffffffffffffff16600482815481101515610ba257fe5b906000526020600020906006020160000160009054906101000a900473ffffffffffffffffffffffffffffffffffffffff1673ffffffffffffffffffffffffffffffffffffffff16141515610bf657600080fd5b82600081141515610c485760035481111515610c47576040517f08c379a0000000000000000000000000000000000000000000000000000000008152600401610c3e90613e7e565b60405180910390fd5b5b43610c7e600254600484815481101515610c5e57fe5b9060005260206000209060060201600501546130a890919063ffffffff16565b10151515610cc1576040517f08c379a0000000000000000000000000000000000000000000000000000000008152600401610cb890613e7e565b60405180910390fd5b6000600485815481101515610cd257fe5b9060005260206000209060060201905060006007600060066001856001015403815481101515610cfe57fe5b9060005260206000200160009054906101000a900473ffffffffffffffffffffffffffffffffffffffff1673ffffffffffffffffffffffffffffffffffffffff1673ffffffffffffffffffffffffffffffffffffffff16815260200190815260200160002060003373ffffffffffffffffffffffffffffffffffffffff1673ffffffffffffffffffffffffffffffffffffffff1681526020019081526020016000209050610dbd82600201548260010154612bc690919063ffffffff16565b8160010181905550610de0826002015482600001546130a890919063ffffffff16565b81600001819055507f45caffda464ddd8d2e49c5ac57db800a2160d1bc35d3b7757ee94191cd28d90d8260000160009054906101000a900473ffffffffffffffffffffffffffffffffffffffff1683600101548460020154856003015486600401548760050154604051610e5996959493929190613c1a565b60405180910390a1600486815481101515610e7057fe5b9060005260206000209060060201600080820160006101000a81549073ffffffffffffffffffffffffffffffffffffffff0219169055600182016000905560028201600090556003820160009055600482016000905560058201600090555050505050505050565b610ee0611327565b1515610eeb57600080fd5b8060028190555050565b6000808214158015610f0c57506006805490508211155b1515610f4d576040517f08c379a0000000000000000000000000000000000000000000000000000000008152600401610f4490613ebe565b60405180910390fd5b600660018303815481101515610f5f57fe5b9060005260206000200160009054906101000a900473ffffffffffffffffffffffffffffffffffffffff169050919050565b60008173ffffffffffffffffffffffffffffffffffffffff166370a08231336040518263ffffffff167c0100000000000000000000000000000000000000000000000000000000028152600401610fe89190613b15565b60206040518083038186803b15801561100057600080fd5b505afa158015611014573d6000803e3d6000fd5b505050506040513d601f19601f82011682018060405250611038919081019061358f565b9050919050565b611047611327565b151561105257600080fd5b600073ffffffffffffffffffffffffffffffffffffffff166000809054906101000a900473ffffffffffffffffffffffffffffffffffffffff1673ffffffffffffffffffffffffffffffffffffffff167f8be0079c531659141344cd1fd0a4f28419497f9722a3daafe3b4186f6b6457e060405160405180910390a360008060006101000a81548173ffffffffffffffffffffffffffffffffffffffff021916908373ffffffffffffffffffffffffffffffffffffffff160217905550565b611119611327565b151561112457600080fd5b600060035490505b6001548110156112fb57600060048281548110151561114757fe5b9060005260206000209060060201600501541415611164576112ee565b4361119a60025460048481548110151561117a57fe5b9060005260206000209060060201600501546130a890919063ffffffff16565b1115156112e15761122c6004828154811015156111b357fe5b9060005260206000209060060201600101546004838154811015156111d457fe5b9060005260206000209060060201600201546004848154811015156111f557fe5b906000526020600020906006020160000160009054906101000a900473ffffffffffffffffffffffffffffffffffffffff166130c9565b151561126d576040517f08c379a000000000000000000000000000000000000000000000000000000000815260040161126490613e5e565b60405180910390fd5b60048181548110151561127c57fe5b9060005260206000209060060201600080820160006101000a81549073ffffffffffffffffffffffffffffffffffffffff02191690556001820160009055600282016000905560038201600090556004820160009055600582016000905550506112ed565b806003819055506112fb565b5b808060010191505061112c565b50565b60008060009054906101000a900473ffffffffffffffffffffffffffffffffffffffff16905090565b60008060009054906101000a900473ffffffffffffffffffffffffffffffffffffffff1673ffffffffffffffffffffffffffffffffffffffff163373ffffffffffffffffffffffffffffffffffffffff1614905090565b60035481565b81600073ffffffffffffffffffffffffffffffffffffffff168173ffffffffffffffffffffffffffffffffffffffff16141515156113f7576040517f08c379a00000000000000000000000000000000000000000000000000000000081526004016113ee90613e9e565b60405180910390fd5b826000600560008373ffffffffffffffffffffffffffffffffffffffff1673ffffffffffffffffffffffffffffffffffffffff168152602001908152602001600020541415151561147d576040517f08c379a000000000000000000000000000000000000000000000000000000000815260040161147490613e1e565b60405180910390fd5b6000600760008673ffffffffffffffffffffffffffffffffffffffff1673ffffffffffffffffffffffffffffffffffffffff16815260200190815260200160002060003373ffffffffffffffffffffffffffffffffffffffff1673ffffffffffffffffffffffffffffffffffffffff168152602001908152602001600020905083816000015410151515611546576040517f08c379a000000000000000000000000000000000000000000000000000000000815260040161153d90613dde565b60405180910390fd5b61155d848260000154612bc690919063ffffffff16565b81600001819055508473ffffffffffffffffffffffffffffffffffffffff1663a9059cbb33866040518363ffffffff167c01000000000000000000000000000000000000000000000000000000000281526004016115bc929190613b90565b602060405180830381600087803b1580156115d657600080fd5b505af11580156115ea573d6000803e3d6000fd5b505050506040513d601f19601f8201168201806040525061160e919081019061353d565b151561164f576040517f08c379a000000000000000000000000000000000000000000000000000000000815260040161164690613d9e565b60405180910390fd5b8473ffffffffffffffffffffffffffffffffffffffff163373ffffffffffffffffffffffffffffffffffffffff167f46ae78bc7b198b8b534ca0070d125569ac5f955976841c4343223079f3abf0de866040516116ac9190613f14565b60405180910390a35050505050565b60025481565b6060806006805490506040519080825280602002602001820160405280156116f85781602001602082028038833980820191505090505b509050600080905060008090505b6006805490508110156117aa5760068181548110151561172257fe5b9060005260206000200160009054906101000a900473ffffffffffffffffffffffffffffffffffffffff16838380600101945081518110151561176157fe5b9060200190602002019073ffffffffffffffffffffffffffffffffffffffff16908173ffffffffffffffffffffffffffffffffffffffff16815250508080600101915050611706565b50819250505090565b6117bb613335565b600760008373ffffffffffffffffffffffffffffffffffffffff1673ffffffffffffffffffffffffffffffffffffffff16815260200190815260200160002060003373ffffffffffffffffffffffffffffffffffffffff1673ffffffffffffffffffffffffffffffffffffffff168152602001908152602001600020604080519081016040529081600082015481526020016001820154815250509050919050565b836000600560008373ffffffffffffffffffffffffffffffffffffffff1673ffffffffffffffffffffffffffffffffffffffff16815260200190815260200160002054141515156118e3576040517f08c379a00000000000000000000000000000000000000000000000000000000081526004016118da90613e1e565b60405180910390fd5b826000600560008373ffffffffffffffffffffffffffffffffffffffff1673ffffffffffffffffffffffffffffffffffffffff1681526020019081526020016000205414151515611969576040517f08c379a000000000000000000000000000000000000000000000000000000000815260040161196090613e1e565b60405180910390fd5b6000600760008873ffffffffffffffffffffffffffffffffffffffff1673ffffffffffffffffffffffffffffffffffffffff16815260200190815260200160002060003373ffffffffffffffffffffffffffffffffffffffff1673ffffffffffffffffffffffffffffffffffffffff16815260200190815260200160002090508581600001541015611a9657611a54600560008973ffffffffffffffffffffffffffffffffffffffff1673ffffffffffffffffffffffffffffffffffffffff16815260200190815260200160002054611a4f836000015489612bc690919063ffffffff16565b612be8565b1515611a95576040517f08c379a0000000000000000000000000000000000000000000000000000000008152600401611a8c90613e3e565b60405180910390fd5b5b611aad868260000154612bc690919063ffffffff16565b8160000181905550611acc8682600101546130a890919063ffffffff16565b8160010181905550600460c0604051908101604052803373ffffffffffffffffffffffffffffffffffffffff168152602001600560008b73ffffffffffffffffffffffffffffffffffffffff1673ffffffffffffffffffffffffffffffffffffffff168152602001908152602001600020548152602001888152602001600560008973ffffffffffffffffffffffffffffffffffffffff1673ffffffffffffffffffffffffffffffffffffffff168152602001908152602001600020548152602001868152602001438152509080600181540180825580915050906001820390600052602060002090600602016000909192909190915060008201518160000160006101000a81548173ffffffffffffffffffffffffffffffffffffffff021916908373ffffffffffffffffffffffffffffffffffffffff1602179055506020820151816001015560408201518160020155606082015181600301556080820151816004015560a0820151816005015550505060018054016001819055507fd199d758a27cf650a12cc585bb50b544742b93e08d3bba05f85a1328d9d1ee9033600560008a73ffffffffffffffffffffffffffffffffffffffff1673ffffffffffffffffffffffffffffffffffffffff1681526020019081526020016000205488600560008a73ffffffffffffffffffffffffffffffffffffffff1673ffffffffffffffffffffffffffffffffffffffff168152602001908152602001600020548843604051611d0196959493929190613bb9565b60405180910390a150505050505050565b6007602052816000526040600020602052806000526040600020600091509150508060000154908060010154905082565b611d4b61334f565b816000600154118015611d5f575060015481105b1515611da0576040517f08c379a0000000000000000000000000000000000000000000000000000000008152600401611d9790613d5e565b60405180910390fd5b6000600482815481101515611db157fe5b90600052602060002090600602016002015414151515611e06576040517f08c379a0000000000000000000000000000000000000000000000000000000008152600401611dfd90613d5e565b60405180910390fd5b600483815481101515611e1557fe5b906000526020600020906006020160c060405190810160405290816000820160009054906101000a900473ffffffffffffffffffffffffffffffffffffffff1673ffffffffffffffffffffffffffffffffffffffff1673ffffffffffffffffffffffffffffffffffffffff16815260200160018201548152602001600282015481526020016003820154815260200160048201548152602001600582015481525050915050919050565b6000600760008073ffffffffffffffffffffffffffffffffffffffff1673ffffffffffffffffffffffffffffffffffffffff16815260200190815260200160002060003373ffffffffffffffffffffffffffffffffffffffff1673ffffffffffffffffffffffffffffffffffffffff1681526020019081526020016000209050611f563482600001546130a890919063ffffffff16565b8160000181905550600073ffffffffffffffffffffffffffffffffffffffff163373ffffffffffffffffffffffffffffffffffffffff167fb024cc5591038c18f7e2348d474092b453a32212dd1ebcc0370c4ac2e42cce4334604051611fbc9190613f14565b60405180910390a350565b611fcf611327565b1515611fda57600080fd5b806000600560008373ffffffffffffffffffffffffffffffffffffffff1673ffffffffffffffffffffffffffffffffffffffff1681526020019081526020016000205414151561205f576040517f08c379a000000000000000000000000000000000000000000000000000000000815260040161205690613dfe565b60405180910390fd5b60068290806001815401808255809150509060018203906000526020600020016000909192909190916101000a81548173ffffffffffffffffffffffffffffffffffffffff021916908373ffffffffffffffffffffffffffffffffffffffff16021790555050600680549050600560008473ffffffffffffffffffffffffffffffffffffffff1673ffffffffffffffffffffffffffffffffffffffff168152602001908152602001600020819055505050565b606080600061212e600354600154612bc690919063ffffffff16565b905060608160405190808252806020026020018201604052801561216c57816020015b61215961339c565b8152602001906001900390816121515790505b5090506060826040519080825280602002602001820160405280156121a05781602001602082028038833980820191505090505b5090506000809050600060035490505b6001548110156122e55760006004828154811015156121cb57fe5b90600052602060002090600602016004015414156121e8576122d8565b6004818154811015156121f757fe5b906000526020600020906006020160c060405190810160405290816000820160009054906101000a900473ffffffffffffffffffffffffffffffffffffffff1673ffffffffffffffffffffffffffffffffffffffff1673ffffffffffffffffffffffffffffffffffffffff1681526020016001820154815260200160028201548152602001600382015481526020016004820154815260200160058201548152505084838151811015156122a757fe5b906020019060200201819052508083838060010194508151811015156122c957fe5b90602001906020020181815250505b80806001019150506121b0565b50828295509550505050509091565b60015481565b60068181548110151561230957fe5b906000526020600020016000915054906101000a900473ffffffffffffffffffffffffffffffffffffffff1681565b81600060015411801561234c575060015481105b151561238d576040517f08c379a000000000000000000000000000000000000000000000000000000000815260040161238490613d5e565b60405180910390fd5b600060048281548110151561239e57fe5b906000526020600020906006020160020154141515156123f3576040517f08c379a00000000000000000000000000000000000000000000000000000000081526004016123ea90613d5e565b60405180910390fd5b826000811415156124455760035481111515612444576040517f08c379a000000000000000000000000000000000000000000000000000000000815260040161243b90613e7e565b60405180910390fd5b5b4361247b60025460048481548110151561245b57fe5b9060005260206000209060060201600501546130a890919063ffffffff16565b101515156124be576040517f08c379a00000000000000000000000000000000000000000000000000000000081526004016124b590613e7e565b60405180910390fd5b60006004858154811015156124cf57fe5b90600052602060002090600602019050600060076000600660018560030154038154811015156124fb57fe5b9060005260206000200160009054906101000a900473ffffffffffffffffffffffffffffffffffffffff1673ffffffffffffffffffffffffffffffffffffffff1673ffffffffffffffffffffffffffffffffffffffff16815260200190815260200160002060003373ffffffffffffffffffffffffffffffffffffffff1673ffffffffffffffffffffffffffffffffffffffff16815260200190815260200160002090508481600001541015612611576125cf82600101546125ca836000015488612bc690919063ffffffff16565b612be8565b1515612610576040517f08c379a000000000000000000000000000000000000000000000000000000000815260040161260790613e3e565b60405180910390fd5b5b6000859050826004015486111561266557826004015490506000612642846004015488612bc690919063ffffffff16565b905061265b8184600001546130a890919063ffffffff16565b8360000181905550505b6000612682846002015485600401546131d390919063ffffffff16565b9050600061269983836131fd90919063ffffffff16565b9050600060076000600660018960030154038154811015156126b757fe5b9060005260206000200160009054906101000a900473ffffffffffffffffffffffffffffffffffffffff1673ffffffffffffffffffffffffffffffffffffffff1673ffffffffffffffffffffffffffffffffffffffff16815260200190815260200160002060003373ffffffffffffffffffffffffffffffffffffffff1673ffffffffffffffffffffffffffffffffffffffff1681526020019081526020016000209050612772828260010154612bc690919063ffffffff16565b8160010181905550612791848660000154612bc690919063ffffffff16565b8560000181905550600060076000600660018a60030154038154811015156127b557fe5b9060005260206000200160009054906101000a900473ffffffffffffffffffffffffffffffffffffffff1673ffffffffffffffffffffffffffffffffffffffff1673ffffffffffffffffffffffffffffffffffffffff16815260200190815260200160002060008860000160009054906101000a900473ffffffffffffffffffffffffffffffffffffffff1673ffffffffffffffffffffffffffffffffffffffff1673ffffffffffffffffffffffffffffffffffffffff16815260200190815260200160002090506128948582600001546130a890919063ffffffff16565b8160000181905550600060076000600660018b60010154038154811015156128b857fe5b9060005260206000200160009054906101000a900473ffffffffffffffffffffffffffffffffffffffff1673ffffffffffffffffffffffffffffffffffffffff1673ffffffffffffffffffffffffffffffffffffffff16815260200190815260200160002060003373ffffffffffffffffffffffffffffffffffffffff1673ffffffffffffffffffffffffffffffffffffffff16815260200190815260200160002090506129738482600001546130a890919063ffffffff16565b8160000181905550612992868960040154612bc690919063ffffffff16565b88600401819055506129b1848960020154612bc690919063ffffffff16565b8860020181905550600088600401541415612a365760048c8154811015156129d557fe5b9060005260206000209060060201600080820160006101000a81549073ffffffffffffffffffffffffffffffffffffffff02191690556001820160009055600282016000905560038201600090556004820160009055600582016000905550505b7fe2c51a7545742cdadcaa57e4b0768cf4c99d94d6570d0562bacc6d0d89a5b3398860000160009054906101000a900473ffffffffffffffffffffffffffffffffffffffff1689600101548a600201548b600301548c600401548d600501548c604051612aa99796959493929190613c7b565b60405180910390a1505050505050505050505050565b6000816000600560008373ffffffffffffffffffffffffffffffffffffffff1673ffffffffffffffffffffffffffffffffffffffff1681526020019081526020016000205414151515612b47576040517f08c379a0000000000000000000000000000000000000000000000000000000008152600401612b3e90613e1e565b60405180910390fd5b600560008473ffffffffffffffffffffffffffffffffffffffff1673ffffffffffffffffffffffffffffffffffffffff16815260200190815260200160002054915050919050565b612b97611327565b1515612ba257600080fd5b612bab8161323b565b50565b60056020528060005260406000206000915090505481565b6000828211151515612bd757600080fd5b600082840390508091505092915050565b60006001831415612d7257813410151515612c38576040517f08c379a0000000000000000000000000000000000000000000000000000000008152600401612c2f90613e3e565b60405180910390fd5b600060076000600660018703815481101515612c5057fe5b9060005260206000200160009054906101000a900473ffffffffffffffffffffffffffffffffffffffff1673ffffffffffffffffffffffffffffffffffffffff1673ffffffffffffffffffffffffffffffffffffffff16815260200190815260200160002060003373ffffffffffffffffffffffffffffffffffffffff1673ffffffffffffffffffffffffffffffffffffffff1681526020019081526020016000209050612d0b8382600001546130a890919063ffffffff16565b81600001819055503373ffffffffffffffffffffffffffffffffffffffff166108fc612d408534612bc690919063ffffffff16565b9081150290604051600060405180830381858888f19350505050158015612d6b573d6000803e3d6000fd5b505061309e565b81600660018503815481101515612d8557fe5b9060005260206000200160009054906101000a900473ffffffffffffffffffffffffffffffffffffffff1673ffffffffffffffffffffffffffffffffffffffff1663dd62ed3e33306040518363ffffffff167c0100000000000000000000000000000000000000000000000000000000028152600401612e06929190613b30565b60206040518083038186803b158015612e1e57600080fd5b505afa158015612e32573d6000803e3d6000fd5b505050506040513d601f19601f82011682018060405250612e56919081019061358f565b10151515612e99576040517f08c379a0000000000000000000000000000000000000000000000000000000008152600401612e9090613e3e565b60405180910390fd5b600660018403815481101515612eab57fe5b9060005260206000200160009054906101000a900473ffffffffffffffffffffffffffffffffffffffff1673ffffffffffffffffffffffffffffffffffffffff166323b872dd3330856040518463ffffffff167c0100000000000000000000000000000000000000000000000000000000028152600401612f2e93929190613b59565b602060405180830381600087803b158015612f4857600080fd5b505af1158015612f5c573d6000803e3d6000fd5b505050506040513d601f19601f82011682018060405250612f80919081019061353d565b1515612fc1576040517f08c379a0000000000000000000000000000000000000000000000000000000008152600401612fb890613dbe565b60405180910390fd5b600060076000600660018703815481101515612fd957fe5b9060005260206000200160009054906101000a900473ffffffffffffffffffffffffffffffffffffffff1673ffffffffffffffffffffffffffffffffffffffff1673ffffffffffffffffffffffffffffffffffffffff16815260200190815260200160002060003373ffffffffffffffffffffffffffffffffffffffff1673ffffffffffffffffffffffffffffffffffffffff16815260200190815260200160002090506130948382600001546130a890919063ffffffff16565b8160000181905550505b6001905092915050565b60008082840190508381101515156130bf57600080fd5b8091505092915050565b6000806006858154811015156130db57fe5b9060005260206000200160009054906101000a900473ffffffffffffffffffffffffffffffffffffffff1690506000600760008373ffffffffffffffffffffffffffffffffffffffff1673ffffffffffffffffffffffffffffffffffffffff16815260200190815260200160002060008573ffffffffffffffffffffffffffffffffffffffff1673ffffffffffffffffffffffffffffffffffffffff168152602001908152602001600020905061319f858260010154612bc690919063ffffffff16565b81600101819055506131be8582600001546130a890919063ffffffff16565b81600001819055506001925050509392505050565b600080821115156131e357600080fd5b600082848115156131f057fe5b0490508091505092915050565b6000808314156132105760009050613235565b6000828402905082848281151561322357fe5b0414151561323057600080fd5b809150505b92915050565b600073ffffffffffffffffffffffffffffffffffffffff168173ffffffffffffffffffffffffffffffffffffffff161415151561327757600080fd5b8073ffffffffffffffffffffffffffffffffffffffff166000809054906101000a900473ffffffffffffffffffffffffffffffffffffffff1673ffffffffffffffffffffffffffffffffffffffff167f8be0079c531659141344cd1fd0a4f28419497f9722a3daafe3b4186f6b6457e060405160405180910390a3806000806101000a81548173ffffffffffffffffffffffffffffffffffffffff021916908373ffffffffffffffffffffffffffffffffffffffff16021790555050565b604080519081016040528060008152602001600081525090565b60c060405190810160405280600073ffffffffffffffffffffffffffffffffffffffff16815260200160008152602001600081526020016000815260200160008152602001600081525090565b60c060405190810160405280600073ffffffffffffffffffffffffffffffffffffffff16815260200160008152602001600081526020016000815260200160008152602001600081525090565b60006133f5823561400f565b905092915050565b60006134098251614021565b905092915050565b600061341d823561402d565b905092915050565b6000613431825161402d565b905092915050565b60006020828403121561344b57600080fd5b6000613459848285016133e9565b91505092915050565b6000806040838503121561347557600080fd5b6000613483858286016133e9565b9250506020613494858286016133e9565b9150509250929050565b600080604083850312156134b157600080fd5b60006134bf858286016133e9565b92505060206134d085828601613411565b9150509250929050565b600080600080608085870312156134f057600080fd5b60006134fe878288016133e9565b945050602061350f87828801613411565b9350506040613520878288016133e9565b925050606061353187828801613411565b91505092959194509250565b60006020828403121561354f57600080fd5b600061355d848285016133fd565b91505092915050565b60006020828403121561357857600080fd5b600061358684828501613411565b91505092915050565b6000602082840312156135a157600080fd5b60006135af84828501613425565b91505092915050565b600080604083850312156135cb57600080fd5b60006135d985828601613411565b92505060206135ea85828601613411565b9150509250929050565b6135fd81614037565b82525050565b61360c81613fc7565b82525050565b600061361d82613f7f565b80845260208401935061362f83613f58565b60005b8281101561366157613645868351613603565b61364e82613fa0565b9150602086019550600181019050613632565b50849250505092915050565b600061367882613f8a565b80845260208401935061368a83613f65565b60005b828110156136bc576136a0868351613a70565b6136a982613fad565b915060c08601955060018101905061368d565b50849250505092915050565b60006136d382613f95565b8084526020840193506136e583613f72565b60005b82811015613717576136fb868351613aeb565b61370482613fba565b91506020860195506001810190506136e8565b50849250505092915050565b61372c81613fd9565b82525050565b6000601482527f6f7264657220646f6573206e6f742065786973740000000000000000000000006020830152604082019050919050565b6000601a82527f617070726f76652074686520636f6e74726163742066697273740000000000006020830152604082019050919050565b6000601582527f4552433230207472616e73666572206661696c656400000000000000000000006020830152604082019050919050565b6000601182527f455243323020746f6b656e206572726f720000000000000000000000000000006020830152604082019050919050565b6000601c82527f6e6f7420656e6f7567682062616c616e636520617661696c61626c65000000006020830152604082019050919050565b6000601482527f546f6b656e20616c7265616479206578697374730000000000000000000000006020830152604082019050919050565b6000601482527f546f6b656e20646f6573206e6f742065786973740000000000000000000000006020830152604082019050919050565b6000601282527f6e6f7420656e6f7567682062616c616e636500000000000000000000000000006020830152604082019050919050565b6000601f82527f6661696c656420746f2064656c6574652065787069726564206f7264657273006020830152604082019050919050565b6000601d82527f746865206f726465722068617320616c726561647920657870697265640000006020830152604082019050919050565b6000601f82527f616464726573732063616e6e6f742062652074686520302061646472657373006020830152604082019050919050565b6000601482527f746f6b656e20646f6573206e6f742065786973740000000000000000000000006020830152604082019050919050565b6040820160008201516139dc6000850182613aeb565b5060208201516139ef6020850182613aeb565b50505050565b60c082016000820151613a0b6000850182613603565b506020820151613a1e6020850182613aeb565b506040820151613a316040850182613aeb565b506060820151613a446060850182613aeb565b506080820151613a576080850182613aeb565b5060a0820151613a6a60a0850182613aeb565b50505050565b60c082016000820151613a866000850182613603565b506020820151613a996020850182613aeb565b506040820151613aac6040850182613aeb565b506060820151613abf6060850182613aeb565b506080820151613ad26080850182613aeb565b5060a0820151613ae560a0850182613aeb565b50505050565b613af481614005565b82525050565b6000602082019050613b0f6000830184613603565b92915050565b6000602082019050613b2a60008301846135f4565b92915050565b6000604082019050613b4560008301856135f4565b613b526020830184613603565b9392505050565b6000606082019050613b6e60008301866135f4565b613b7b6020830185613603565b613b886040830184613aeb565b949350505050565b6000604082019050613ba560008301856135f4565b613bb26020830184613aeb565b9392505050565b600060c082019050613bce60008301896135f4565b613bdb6020830188613aeb565b613be86040830187613aeb565b613bf56060830186613aeb565b613c026080830185613aeb565b613c0f60a0830184613aeb565b979650505050505050565b600060c082019050613c2f6000830189613603565b613c3c6020830188613aeb565b613c496040830187613aeb565b613c566060830186613aeb565b613c636080830185613aeb565b613c7060a0830184613aeb565b979650505050505050565b600060e082019050613c90600083018a613603565b613c9d6020830189613aeb565b613caa6040830188613aeb565b613cb76060830187613aeb565b613cc46080830186613aeb565b613cd160a0830185613aeb565b613cde60c0830184613aeb565b98975050505050505050565b60006020820190508181036000830152613d048184613612565b905092915050565b60006040820190508181036000830152613d26818561366d565b90508181036020830152613d3a81846136c8565b90509392505050565b6000602082019050613d586000830184613723565b92915050565b60006020820190508181036000830152613d7781613732565b9050919050565b60006020820190508181036000830152613d9781613769565b9050919050565b60006020820190508181036000830152613db7816137a0565b9050919050565b60006020820190508181036000830152613dd7816137d7565b9050919050565b60006020820190508181036000830152613df78161380e565b9050919050565b60006020820190508181036000830152613e1781613845565b9050919050565b60006020820190508181036000830152613e378161387c565b9050919050565b60006020820190508181036000830152613e57816138b3565b9050919050565b60006020820190508181036000830152613e77816138ea565b9050919050565b60006020820190508181036000830152613e9781613921565b9050919050565b60006020820190508181036000830152613eb781613958565b9050919050565b60006020820190508181036000830152613ed78161398f565b9050919050565b6000604082019050613ef360008301846139c6565b92915050565b600060c082019050613f0e60008301846139f5565b92915050565b6000602082019050613f296000830184613aeb565b92915050565b6000604082019050613f446000830185613aeb565b613f516020830184613aeb565b9392505050565b6000602082019050919050565b6000602082019050919050565b6000602082019050919050565b600081519050919050565b600081519050919050565b600081519050919050565b6000602082019050919050565b6000602082019050919050565b6000602082019050919050565b6000613fd282613fe5565b9050919050565b60008115159050919050565b600073ffffffffffffffffffffffffffffffffffffffff82169050919050565b6000819050919050565b600061401a82613fe5565b9050919050565b60008115159050919050565b6000819050919050565b600061404282614049565b9050919050565b60006140548261405b565b9050919050565b600061406682613fe5565b905091905056fea265627a7a723058202f0126fdb03baff1eb357e91314902a1ca2a30744095d6c8854b0c2c947130246c6578706572696d656e74616cf50037",
  "source": "pragma solidity 0.5.2;\r\npragma experimental ABIEncoderV2;\r\n\r\nimport \"./SafeMath.sol\";\r\nimport \"./IERC20.sol\";\r\nimport \"./Ownable.sol\";\r\n\r\n\r\ncontract  MyExchange is Ownable {\r\n\r\n    using SafeMath for uint256;\r\n\r\n    event LogDepositToken(\r\n        address indexed _user,\r\n        address indexed _token,\r\n        uint256 _amount\r\n    );\r\n\r\n    event LogWithdrawToken(\r\n        address indexed _user,\r\n        address indexed _token,\r\n        uint256 _amount\r\n    );\r\n\r\n    event LogOrder(\r\n        address _orderMaker,\r\n        uint256 _haveTokenId,\r\n        uint256 _haveAmount,\r\n        uint256 _wantTokenId,\r\n        uint256 _wantAmount,\r\n        uint256 _creationBlock\r\n    );\r\n\r\n    event LogTrade(\r\n        address _orderMaker,\r\n        uint256 _haveTokenId,\r\n        uint256 _haveAmount,\r\n        uint256 _wantTokenId,\r\n        uint256 _wantAmount,\r\n        uint256 _creationBlock,\r\n        uint256 _amountFill\r\n    );\r\n\r\n    event LogCancelOrder(\r\n        address _orderMaker,\r\n        uint256 _haveTokenId,\r\n        uint256 _haveAmount,\r\n        uint256 _wantTokenId,\r\n        uint256 _wantAmount,\r\n        uint256 _creationBlock\r\n    );\r\n\r\n    struct Balance {\r\n        uint256 available;\r\n        uint256 locked;\r\n    }\r\n\r\n    struct Order {\r\n        address orderMaker;\r\n        uint256 haveTokenId;\r\n        uint256 haveAmount;\r\n        uint256 wantTokenId;\r\n        uint256 wantAmount;\r\n        uint256 creationBlock;\r\n    }\r\n\r\n    uint256 public arrayLength;\r\n    uint256 public expirationBlocks;\r\n    uint256 public lastExpiredOrder;\r\n    Order[] public openOrders;\r\n\r\n    mapping (address => uint256) public tokenIds;\r\n    address[] public tokenAddresses;\r\n\r\n    mapping (address => mapping (address => Balance)) public userBalanceForToken;\r\n\r\n    constructor() public {\r\n        tokenIds[address(0)] = 1;\r\n        tokenAddresses.push(address(0));\r\n        expirationBlocks = 5000;\r\n    }\r\n\r\n    modifier orderExists(uint256 _orderIndex) {\r\n        require(arrayLength > 0 && _orderIndex < (arrayLength), \"order does not exist\");\r\n        require(openOrders[_orderIndex].haveAmount != 0, \"order does not exist\");\r\n        _;\r\n    }\r\n\r\n    modifier onlyOrderMaker(uint256 _orderIndex) {\r\n        require(openOrders[_orderIndex].orderMaker == msg.sender);\r\n        _;\r\n    }\r\n\r\n    modifier orderNotExpired(uint256 _orderIndex) {\r\n        if (_orderIndex != 0) {\r\n            require(_orderIndex > lastExpiredOrder, \"the order has already expired\");\r\n        }\r\n        require(\r\n            (openOrders[_orderIndex].creationBlock).add(expirationBlocks) >= block.number,\r\n            \"the order has already expired\"\r\n        );\r\n        _;\r\n    }\r\n\r\n    modifier onlyTokens(address _tokenAddress) {\r\n        require(_tokenAddress != address(0), \"address cannot be the 0 address\");\r\n        _;\r\n    }\r\n\r\n    modifier tokenExists(address _tokenAddress) {\r\n        require(tokenIds[_tokenAddress] != 0, \"Token does not exist\");\r\n        _;\r\n    }\r\n\r\n    modifier tokenNotExists(address _tokenAddress) {\r\n        require(tokenIds[_tokenAddress] == 0, \"Token already exists\");\r\n        _;\r\n    }\r\n\r\n    function addToken(address _tokenAddress) external onlyOwner tokenNotExists(_tokenAddress) {\r\n        tokenAddresses.push(_tokenAddress);\r\n        tokenIds[_tokenAddress] = tokenAddresses.length;\r\n    }\r\n\r\n    /// Function to receive ETH\r\n    /// Allows the contract to manage the Ether the user deposits\r\n    /// Triggers deposit event.\r\n    function deposit() external payable {\r\n        Balance storage b = userBalanceForToken[address(0)][msg.sender];\r\n        b.available = (b.available).add(msg.value);\r\n        emit LogDepositToken(msg.sender, address(0), msg.value);\r\n    }\r\n\r\n    /// Function to withdraw ETH\r\n    /// msg.sender withdraws _amount ETH from the contract\r\n    /// triggers withdraw event\r\n    function withdraw(uint256 _amount) external {\r\n        Balance storage b = userBalanceForToken[address(0)][msg.sender];\r\n        require(b.available >= _amount, \"not enough balance available\");\r\n        b.available = (b.available).sub(_amount);\r\n        msg.sender.transfer(_amount);\r\n        emit LogWithdrawToken(msg.sender, address(0), _amount);\r\n    }\r\n\r\n    /// Function to send _amount of specific _token to contract\r\n    /// This allows the contrct to spend _amount tokens on your behalf.\r\n    /// msg.sender has to call approve on this contract first.\r\n    /// triggers DepositToken event.\r\n    function depositToken(address _token, uint256 _amount) external onlyTokens(_token) tokenExists(_token) {\r\n        require(_checkBank(tokenIds[_token], _amount), \"approve the contract first\");\r\n        emit LogDepositToken(msg.sender, _token, _amount);\r\n    }\r\n\r\n    /// function to withdraw _amount of specific _token from contract\r\n    /// triggers WithdrawToken event\r\n    function withdrawToken(address _token, uint256 _amount) external onlyTokens(_token) tokenExists(_token) {\r\n        Balance storage balance = userBalanceForToken[_token][msg.sender];\r\n        require(balance.available >= _amount, \"not enough balance available\");\r\n        balance.available = (balance.available).sub(_amount);\r\n        require(IERC20(_token).transfer(msg.sender, _amount), \"ERC20 transfer failed\");\r\n        emit LogWithdrawToken(msg.sender, _token, _amount);\r\n    }\r\n\r\n    function placeOrder(\r\n        address _haveToken,\r\n        uint256 _haveAmount,\r\n        address _wantToken,\r\n        uint256 _wantAmount\r\n    ) external payable tokenExists(_haveToken) tokenExists(_wantToken) {\r\n        Balance storage balance = userBalanceForToken[_haveToken][msg.sender];\r\n        /// if availabe is not enough, check for other sources of balance.\r\n        if (balance.available < _haveAmount) {\r\n            require(\r\n                _checkBank(tokenIds[_haveToken], _haveAmount.sub(balance.available)),\r\n                \"not enough balance\"\r\n            );\r\n        }\r\n        /// lock assets\r\n        balance.available = (balance.available).sub(_haveAmount);\r\n        balance.locked = (balance.locked).add(_haveAmount);\r\n        /// update orders\r\n        openOrders.push(Order({\r\n            orderMaker: msg.sender,\r\n            haveTokenId: tokenIds[_haveToken],\r\n            haveAmount: _haveAmount,\r\n            wantTokenId: tokenIds[_wantToken],\r\n            wantAmount: _wantAmount,\r\n            creationBlock: block.number\r\n        }));\r\n        arrayLength = arrayLength + 1;\r\n        /// emit event\r\n        emit LogOrder(msg.sender, tokenIds[_haveToken], _haveAmount, tokenIds[_wantToken], _wantAmount, block.number);\r\n    }\r\n\r\n    function cancelOrder(\r\n        uint256 _orderIndex\r\n    ) external orderExists(_orderIndex) onlyOrderMaker(_orderIndex) orderNotExpired(_orderIndex) {\r\n        Order storage order = openOrders[_orderIndex];\r\n        /// unlock locked assets\r\n        Balance storage balance = userBalanceForToken[tokenAddresses[order.haveTokenId-1]][msg.sender];\r\n        balance.locked = (balance.locked).sub(order.haveAmount);\r\n        balance.available = (balance.available).add(order.haveAmount);\r\n        /// emit event\r\n        emit LogCancelOrder(\r\n            order.orderMaker,\r\n            order.haveTokenId,\r\n            order.haveAmount,\r\n            order.wantTokenId,\r\n            order.wantAmount,\r\n            order.creationBlock\r\n        );\r\n        /// delete order\r\n        delete openOrders[_orderIndex];\r\n    }\r\n\r\n    function executeOrder(\r\n        uint256 _orderIndex,\r\n        uint256 _amountFill\r\n    ) external orderExists(_orderIndex) orderNotExpired(_orderIndex) {\r\n        Order storage order = openOrders[_orderIndex];\r\n        /// check if taker has enough balance\r\n        Balance storage takerHaveTokenBalance = userBalanceForToken[tokenAddresses[order.wantTokenId-1]][msg.sender];\r\n        /// if availabe is not enough, check for other sources of balance.\r\n        if (takerHaveTokenBalance.available < _amountFill) {\r\n            require(\r\n                _checkBank(order.haveTokenId, _amountFill.sub(takerHaveTokenBalance.available)),\r\n                \"not enough balance\"\r\n            );\r\n        }\r\n        /// check if _amountFill is bigger than order wantAmount then calculate cost and change\r\n        uint256 takerCost = _amountFill;\r\n        if (_amountFill > order.wantAmount) {\r\n            takerCost = order.wantAmount;\r\n            uint256 takerChange = _amountFill.sub(order.wantAmount);\r\n            takerHaveTokenBalance.available = (takerHaveTokenBalance.available).add(takerChange);\r\n        }\r\n        /// Calculate rate\r\n        uint256 haveRate = (order.wantAmount).div(order.haveAmount);\r\n        /// Calculate maker and taker cost\r\n        uint256  makerCost = haveRate.mul(takerCost);\r\n        /// update haveToken balance for maker and taker\r\n        Balance storage makerHaveTokenBalance = userBalanceForToken[tokenAddresses[order.wantTokenId-1]][msg.sender];\r\n        makerHaveTokenBalance.locked = (makerHaveTokenBalance.locked).sub(makerCost);\r\n        takerHaveTokenBalance.available = (takerHaveTokenBalance.available).sub(takerCost);\r\n        /// update wantToken balance for maker and taker\r\n        Balance storage makerWantTokenBalance = userBalanceForToken[tokenAddresses[order.wantTokenId-1]][order.orderMaker];\r\n        makerWantTokenBalance.available = (makerWantTokenBalance.available).add(takerCost);\r\n        Balance storage takerWantTokenBalance = userBalanceForToken[tokenAddresses[order.haveTokenId-1]][msg.sender];\r\n        takerWantTokenBalance.available = (takerWantTokenBalance.available).add(makerCost);\r\n        /// update order\r\n        order.wantAmount = (order.wantAmount).sub(takerCost);\r\n        order.haveAmount = (order.haveAmount).sub(makerCost);\r\n        /// if the order is completely filled, delete it\r\n        if (order.wantAmount == 0) {\r\n            delete openOrders[_orderIndex];\r\n        }\r\n        /// emit event\r\n        emit LogTrade(\r\n            order.orderMaker, order.haveTokenId,\r\n            order.haveAmount, order.wantTokenId,\r\n            order.wantAmount, order.creationBlock,\r\n            takerCost\r\n        );\r\n    }\r\n\r\n    function setExpiration(uint256 _expiraton) external onlyOwner {\r\n        expirationBlocks = _expiraton;\r\n    }\r\n\r\n    function deleteExpiredOrders() external onlyOwner {\r\n        for (uint256 i = lastExpiredOrder; i < arrayLength; i++) {\r\n            if (openOrders[i].creationBlock == 0) continue;\r\n            if ((openOrders[i].creationBlock).add(expirationBlocks) <= block.number) {\r\n                require(_unlockBalance(\r\n                    openOrders[i].haveTokenId,\r\n                    openOrders[i].haveAmount,\r\n                    openOrders[i].orderMaker\r\n                ), \"failed to delete expired orders\");\r\n                delete openOrders[i];\r\n            } else {\r\n                lastExpiredOrder = i;\r\n                break;\r\n            }\r\n        }\r\n    }\r\n\r\n    function balanceOf(address _token) public view returns (uint256) {\r\n        return (IERC20(_token).balanceOf(msg.sender));\r\n    }\r\n\r\n    function getUserBalanceForToken(address _token) public view returns (Balance memory) {\r\n        return(userBalanceForToken[_token][msg.sender]);\r\n    }\r\n\r\n    function getTokenId(address _token) public view tokenExists(_token) returns (uint256) {\r\n        return tokenIds[_token];\r\n    }\r\n\r\n    function getTokenAddress(uint256 _tokenId) public view returns (address) {\r\n        require(_tokenId != 0 && _tokenId <= tokenAddresses.length, \"token does not exist\");\r\n        return tokenAddresses[_tokenId - 1];\r\n    }\r\n\r\n    function getOrder(uint256 _orderIndex) public view orderExists(_orderIndex) returns (Order memory) {\r\n        return openOrders[_orderIndex];\r\n    }\r\n\r\n    function getTokens() public view returns (address[] memory) {\r\n        address[] memory tokens = new address[](tokenAddresses.length);\r\n        uint256 counter = 0;\r\n        for (uint256 i = 0; i < tokenAddresses.length; i++) {\r\n            tokens[counter++] = tokenAddresses[i];\r\n        }\r\n        return tokens;\r\n    }\r\n\r\n    function getOpenOrders() public view returns (Order[] memory, uint256[] memory) {\r\n        uint256 size = arrayLength.sub(lastExpiredOrder);\r\n        Order[] memory order = new Order[](size);\r\n        uint256[] memory realIndices = new uint[](size);\r\n        uint256 counter = 0;\r\n        for (uint256 i = lastExpiredOrder; i < arrayLength; i++) {\r\n            if (openOrders[i].wantAmount == 0) continue;\r\n            order[counter] = openOrders[i];\r\n            realIndices[counter++] = i;\r\n        }\r\n        return (order, realIndices);\r\n    }\r\n\r\n    function _checkBank(uint256 _tokenId, uint256 _amountNeeded) internal returns (bool) {\r\n        if (_tokenId == 1) {\r\n            require(msg.value >= _amountNeeded, \"not enough balance\");\r\n            Balance storage balance = userBalanceForToken[tokenAddresses[_tokenId-1]][msg.sender];\r\n            balance.available = balance.available.add(_amountNeeded);\r\n            msg.sender.transfer(msg.value.sub(_amountNeeded));\r\n        } else {\r\n            require(\r\n                IERC20(tokenAddresses[_tokenId-1]).allowance(msg.sender, address(this)) >= _amountNeeded,\r\n                \"not enough balance\"\r\n            );\r\n            require(\r\n                IERC20(tokenAddresses[_tokenId-1]).transferFrom(msg.sender, address(this), _amountNeeded),\r\n                \"ERC20 token error\"\r\n            );\r\n            Balance storage balance = userBalanceForToken[tokenAddresses[_tokenId-1]][msg.sender];\r\n            balance.available = balance.available.add(_amountNeeded);\r\n        }\r\n        return true;\r\n    }\r\n\r\n    function _unlockBalance(uint256 _tokenId, uint256 _amountUnlock, address _maker ) internal returns (bool) {\r\n        address tokenAddress = tokenAddresses[_tokenId];\r\n        Balance storage makerBalance = userBalanceForToken[tokenAddress][_maker];\r\n        makerBalance.locked = makerBalance.locked.sub(_amountUnlock);\r\n        makerBalance.available = makerBalance.available.add(_amountUnlock);\r\n        return true;\r\n    }\r\n}\r\n",
  "sourcePath": "C:/Users/Madness/Desktop/TFG/exchange/exchange/contracts/MyExchange.sol",
  "compiler": {
    "name": "solc",
    "version": "0.5.2+commit.1df8f40c.Emscripten.clang"
  },
  "schemaVersion": "3.0.2",
  "updatedAt": "2019-05-12T20:03:06.435Z",
  "devdoc": {
    "methods": {
      "isOwner()": {
        "return": "true if `msg.sender` is the owner of the contract.\r"
      },
      "owner()": {
        "return": "the address of the owner.\r"
      },
      "renounceOwnership()": {
        "details": "Allows the current owner to relinquish control of the contract.\r"
      },
      "transferOwnership(address)": {
        "details": "Allows the current owner to transfer control of the contract to a newOwner.\r",
        "params": {
          "newOwner": "The address to transfer ownership to.\r"
        }
      }
    }
  },
  "userdoc": {
    "methods": {
      "deposit()": {
        "notice": "Triggers deposit event."
      },
      "depositToken(address,uint256)": {
        "notice": "triggers DepositToken event."
      },
      "renounceOwnership()": {
        "notice": "Renouncing to ownership will leave the contract without an owner.\r It will not be possible to call the functions with the `onlyOwner`\r modifier anymore.\r"
      },
      "withdraw(uint256)": {
        "notice": "triggers withdraw event"
      },
      "withdrawToken(address,uint256)": {
        "notice": "triggers WithdrawToken event"
      }
    }
  }
}