{
  "contractName": "MyExchange",
  "abi": [
    {
      "constant": true,
      "inputs": [
        {
          "name": "",
          "type": "address"
        },
        {
          "name": "",
          "type": "bytes32"
        }
      ],
      "name": "userOrders",
      "outputs": [
        {
          "name": "",
          "type": "uint256"
        }
      ],
      "payable": false,
      "stateMutability": "view",
      "type": "function",
      "signature": "0x4c113db4"
    },
    {
      "constant": false,
      "inputs": [],
      "name": "renounceOwnership",
      "outputs": [],
      "payable": false,
      "stateMutability": "nonpayable",
      "type": "function",
      "signature": "0x715018a6"
    },
    {
      "constant": true,
      "inputs": [],
      "name": "owner",
      "outputs": [
        {
          "name": "",
          "type": "address"
        }
      ],
      "payable": false,
      "stateMutability": "view",
      "type": "function",
      "signature": "0x8da5cb5b"
    },
    {
      "constant": true,
      "inputs": [],
      "name": "isOwner",
      "outputs": [
        {
          "name": "",
          "type": "bool"
        }
      ],
      "payable": false,
      "stateMutability": "view",
      "type": "function",
      "signature": "0x8f32d59b"
    },
    {
      "constant": true,
      "inputs": [
        {
          "name": "",
          "type": "address"
        },
        {
          "name": "",
          "type": "address"
        }
      ],
      "name": "userBalanceForToken",
      "outputs": [
        {
          "name": "",
          "type": "uint256"
        }
      ],
      "payable": false,
      "stateMutability": "view",
      "type": "function",
      "signature": "0xb009e4d3"
    },
    {
      "constant": false,
      "inputs": [
        {
          "name": "newOwner",
          "type": "address"
        }
      ],
      "name": "transferOwnership",
      "outputs": [],
      "payable": false,
      "stateMutability": "nonpayable",
      "type": "function",
      "signature": "0xf2fde38b"
    },
    {
      "inputs": [],
      "payable": false,
      "stateMutability": "nonpayable",
      "type": "constructor",
      "signature": "constructor"
    },
    {
      "anonymous": false,
      "inputs": [
        {
          "indexed": true,
          "name": "_token",
          "type": "address"
        },
        {
          "indexed": true,
          "name": "_user",
          "type": "address"
        },
        {
          "indexed": false,
          "name": "_amount",
          "type": "uint256"
        }
      ],
      "name": "LogDepositToken",
      "type": "event",
      "signature": "0xb024cc5591038c18f7e2348d474092b453a32212dd1ebcc0370c4ac2e42cce43"
    },
    {
      "anonymous": false,
      "inputs": [
        {
          "indexed": true,
          "name": "_token",
          "type": "address"
        },
        {
          "indexed": true,
          "name": "_user",
          "type": "address"
        },
        {
          "indexed": false,
          "name": "_amount",
          "type": "uint256"
        }
      ],
      "name": "LogWithdrawToken",
      "type": "event",
      "signature": "0x46ae78bc7b198b8b534ca0070d125569ac5f955976841c4343223079f3abf0de"
    },
    {
      "anonymous": false,
      "inputs": [
        {
          "indexed": true,
          "name": "_sender",
          "type": "address"
        },
        {
          "indexed": false,
          "name": "_tokenMake",
          "type": "address"
        },
        {
          "indexed": false,
          "name": "_amountMake",
          "type": "uint256"
        },
        {
          "indexed": false,
          "name": "_tokenTake",
          "type": "address"
        },
        {
          "indexed": false,
          "name": "_amountTake",
          "type": "uint256"
        },
        {
          "indexed": true,
          "name": "_expirationBlock",
          "type": "uint256"
        },
        {
          "indexed": false,
          "name": "_nonce",
          "type": "uint256"
        }
      ],
      "name": "LogOrder",
      "type": "event",
      "signature": "0xc397bb678ea0a17eaf1224ce1ad8b716dbcdc35beb31868f3a436caa1ff0c906"
    },
    {
      "anonymous": false,
      "inputs": [
        {
          "indexed": true,
          "name": "previousOwner",
          "type": "address"
        },
        {
          "indexed": true,
          "name": "newOwner",
          "type": "address"
        }
      ],
      "name": "OwnershipTransferred",
      "type": "event",
      "signature": "0x8be0079c531659141344cd1fd0a4f28419497f9722a3daafe3b4186f6b6457e0"
    },
    {
      "constant": false,
      "inputs": [],
      "name": "deposit",
      "outputs": [],
      "payable": true,
      "stateMutability": "payable",
      "type": "function",
      "signature": "0xd0e30db0"
    },
    {
      "constant": false,
      "inputs": [
        {
          "name": "_amount",
          "type": "uint256"
        }
      ],
      "name": "withdraw",
      "outputs": [],
      "payable": false,
      "stateMutability": "nonpayable",
      "type": "function",
      "signature": "0x2e1a7d4d"
    },
    {
      "constant": false,
      "inputs": [
        {
          "name": "_token",
          "type": "address"
        },
        {
          "name": "_amount",
          "type": "uint256"
        }
      ],
      "name": "depositToken",
      "outputs": [],
      "payable": false,
      "stateMutability": "nonpayable",
      "type": "function",
      "signature": "0x338b5dea"
    },
    {
      "constant": false,
      "inputs": [
        {
          "name": "_token",
          "type": "address"
        },
        {
          "name": "_amount",
          "type": "uint256"
        }
      ],
      "name": "withdrawToken",
      "outputs": [],
      "payable": false,
      "stateMutability": "nonpayable",
      "type": "function",
      "signature": "0x9e281a98"
    },
    {
      "constant": false,
      "inputs": [
        {
          "name": "_tokenMake",
          "type": "address"
        },
        {
          "name": "_amountMake",
          "type": "uint256"
        },
        {
          "name": "_tokenTake",
          "type": "address"
        },
        {
          "name": "_amountTake",
          "type": "uint256"
        },
        {
          "name": "_expirationBlock",
          "type": "uint256"
        },
        {
          "name": "_nonce",
          "type": "uint256"
        }
      ],
      "name": "placeOrder",
      "outputs": [],
      "payable": false,
      "stateMutability": "nonpayable",
      "type": "function",
      "signature": "0x44063adf"
    },
    {
      "constant": true,
      "inputs": [
        {
          "name": "_token",
          "type": "address"
        }
      ],
      "name": "balanceOf",
      "outputs": [
        {
          "name": "",
          "type": "uint256"
        }
      ],
      "payable": false,
      "stateMutability": "view",
      "type": "function",
      "signature": "0x70a08231"
    },
    {
      "constant": true,
      "inputs": [
        {
          "name": "_token",
          "type": "address"
        }
      ],
      "name": "getUserBalanceForToken",
      "outputs": [
        {
          "name": "",
          "type": "uint256"
        }
      ],
      "payable": false,
      "stateMutability": "view",
      "type": "function",
      "signature": "0xaadcc9c6"
    }
  ],
  "bytecode": "0x608060405234801561001057600080fd5b50336000806101000a81548173ffffffffffffffffffffffffffffffffffffffff021916908373ffffffffffffffffffffffffffffffffffffffff1602179055506000809054906101000a900473ffffffffffffffffffffffffffffffffffffffff1673ffffffffffffffffffffffffffffffffffffffff16600073ffffffffffffffffffffffffffffffffffffffff167f8be0079c531659141344cd1fd0a4f28419497f9722a3daafe3b4186f6b6457e060405160405180910390a36119c3806100dc6000396000f3fe6080604052600436106100df576000357c0100000000000000000000000000000000000000000000000000000000900480638da5cb5b1161009c578063aadcc9c611610076578063aadcc9c6146103df578063b009e4d314610444578063d0e30db0146104c9578063f2fde38b146104d3576100df565b80638da5cb5b146102fe5780638f32d59b146103555780639e281a9814610384576100df565b80632e1a7d4d146100e4578063338b5dea1461011f57806344063adf1461017a5780634c113db41461021357806370a0823114610282578063715018a6146102e7575b600080fd5b3480156100f057600080fd5b5061011d6004803603602081101561010757600080fd5b8101908080359060200190929190505050610524565b005b34801561012b57600080fd5b506101786004803603604081101561014257600080fd5b81019080803573ffffffffffffffffffffffffffffffffffffffff169060200190929190803590602001909291905050506107d7565b005b34801561018657600080fd5b50610211600480360360c081101561019d57600080fd5b81019080803573ffffffffffffffffffffffffffffffffffffffff16906020019092919080359060200190929190803573ffffffffffffffffffffffffffffffffffffffff169060200190929190803590602001909291908035906020019092919080359060200190929190505050610cf9565b005b34801561021f57600080fd5b5061026c6004803603604081101561023657600080fd5b81019080803573ffffffffffffffffffffffffffffffffffffffff16906020019092919080359060200190929190505050610f62565b6040518082815260200191505060405180910390f35b34801561028e57600080fd5b506102d1600480360360208110156102a557600080fd5b81019080803573ffffffffffffffffffffffffffffffffffffffff169060200190929190505050610f87565b6040518082815260200191505060405180910390f35b3480156102f357600080fd5b506102fc611064565b005b34801561030a57600080fd5b50610313611136565b604051808273ffffffffffffffffffffffffffffffffffffffff1673ffffffffffffffffffffffffffffffffffffffff16815260200191505060405180910390f35b34801561036157600080fd5b5061036a61115f565b604051808215151515815260200191505060405180910390f35b34801561039057600080fd5b506103dd600480360360408110156103a757600080fd5b81019080803573ffffffffffffffffffffffffffffffffffffffff169060200190929190803590602001909291905050506111b6565b005b3480156103eb57600080fd5b5061042e6004803603602081101561040257600080fd5b81019080803573ffffffffffffffffffffffffffffffffffffffff169060200190929190505050611619565b6040518082815260200191505060405180910390f35b34801561045057600080fd5b506104b36004803603604081101561046757600080fd5b81019080803573ffffffffffffffffffffffffffffffffffffffff169060200190929190803573ffffffffffffffffffffffffffffffffffffffff16906020019092919050505061169f565b6040518082815260200191505060405180910390f35b6104d16116c4565b005b3480156104df57600080fd5b50610522600480360360208110156104f657600080fd5b81019080803573ffffffffffffffffffffffffffffffffffffffff16906020019092919050505061183b565b005b80600160008073ffffffffffffffffffffffffffffffffffffffff1673ffffffffffffffffffffffffffffffffffffffff16815260200190815260200160002060003373ffffffffffffffffffffffffffffffffffffffff1673ffffffffffffffffffffffffffffffffffffffff1681526020019081526020016000205410151515610618576040517f08c379a00000000000000000000000000000000000000000000000000000000081526004018080602001828103825260128152602001807f6e6f7420656e6f7567682062616c616e6365000000000000000000000000000081525060200191505060405180910390fd5b6106a781600160008073ffffffffffffffffffffffffffffffffffffffff1673ffffffffffffffffffffffffffffffffffffffff16815260200190815260200160002060003373ffffffffffffffffffffffffffffffffffffffff1673ffffffffffffffffffffffffffffffffffffffff1681526020019081526020016000205461185a90919063ffffffff16565b600160008073ffffffffffffffffffffffffffffffffffffffff1673ffffffffffffffffffffffffffffffffffffffff16815260200190815260200160002060003373ffffffffffffffffffffffffffffffffffffffff1673ffffffffffffffffffffffffffffffffffffffff168152602001908152602001600020819055503373ffffffffffffffffffffffffffffffffffffffff166108fc829081150290604051600060405180830381858888f1935050505015801561076d573d6000803e3d6000fd5b503373ffffffffffffffffffffffffffffffffffffffff16600073ffffffffffffffffffffffffffffffffffffffff167f46ae78bc7b198b8b534ca0070d125569ac5f955976841c4343223079f3abf0de836040518082815260200191505060405180910390a350565b600073ffffffffffffffffffffffffffffffffffffffff168273ffffffffffffffffffffffffffffffffffffffff161415151561087c576040517f08c379a000000000000000000000000000000000000000000000000000000000815260040180806020018281038252601f8152602001807f616464726573732063616e6e6f7420626520746865203020616464726573730081525060200191505060405180910390fd5b808273ffffffffffffffffffffffffffffffffffffffff1663dd62ed3e33306040518363ffffffff167c0100000000000000000000000000000000000000000000000000000000028152600401808373ffffffffffffffffffffffffffffffffffffffff1673ffffffffffffffffffffffffffffffffffffffff1681526020018273ffffffffffffffffffffffffffffffffffffffff1673ffffffffffffffffffffffffffffffffffffffff1681526020019250505060206040518083038186803b15801561094a57600080fd5b505afa15801561095e573d6000803e3d6000fd5b505050506040513d602081101561097457600080fd5b8101908080519060200190929190505050101515156109fb576040517f08c379a00000000000000000000000000000000000000000000000000000000081526004018080602001828103825260148152602001807f6e6f7420656e6f75676820616c6c6f77616e636500000000000000000000000081525060200191505060405180910390fd5b8173ffffffffffffffffffffffffffffffffffffffff166323b872dd3330846040518463ffffffff167c0100000000000000000000000000000000000000000000000000000000028152600401808473ffffffffffffffffffffffffffffffffffffffff1673ffffffffffffffffffffffffffffffffffffffff1681526020018373ffffffffffffffffffffffffffffffffffffffff1673ffffffffffffffffffffffffffffffffffffffff1681526020018281526020019350505050602060405180830381600087803b158015610ad257600080fd5b505af1158015610ae6573d6000803e3d6000fd5b505050506040513d6020811015610afc57600080fd5b81019080805190602001909291905050501515610b81576040517f08c379a00000000000000000000000000000000000000000000000000000000081526004018080602001828103825260158152602001807f4552433230207472616e73666572206661696c6564000000000000000000000081525060200191505060405180910390fd5b610c1081600160008573ffffffffffffffffffffffffffffffffffffffff1673ffffffffffffffffffffffffffffffffffffffff16815260200190815260200160002060003373ffffffffffffffffffffffffffffffffffffffff1673ffffffffffffffffffffffffffffffffffffffff1681526020019081526020016000205461187c90919063ffffffff16565b600160008473ffffffffffffffffffffffffffffffffffffffff1673ffffffffffffffffffffffffffffffffffffffff16815260200190815260200160002060003373ffffffffffffffffffffffffffffffffffffffff1673ffffffffffffffffffffffffffffffffffffffff168152602001908152602001600020819055503373ffffffffffffffffffffffffffffffffffffffff168273ffffffffffffffffffffffffffffffffffffffff167fb024cc5591038c18f7e2348d474092b453a32212dd1ebcc0370c4ac2e42cce43836040518082815260200191505060405180910390a35050565b60006002878787878787604051602001808773ffffffffffffffffffffffffffffffffffffffff1673ffffffffffffffffffffffffffffffffffffffff1681526020018681526020018573ffffffffffffffffffffffffffffffffffffffff1673ffffffffffffffffffffffffffffffffffffffff16815260200184815260200183815260200182815260200196505050505050506040516020818303038152906040526040518082805190602001908083835b602083101515610dd25780518252602082019150602081019050602083039250610dad565b6001836020036101000a038019825116818451168082178552505050505050905001915050602060405180830381855afa158015610e14573d6000803e3d6000fd5b5050506040513d6020811015610e2957600080fd5b810190808051906020019092919050505090506000600260003373ffffffffffffffffffffffffffffffffffffffff1673ffffffffffffffffffffffffffffffffffffffff168152602001908152602001600020600083815260200190815260200160002081905550823373ffffffffffffffffffffffffffffffffffffffff167fc397bb678ea0a17eaf1224ce1ad8b716dbcdc35beb31868f3a436caa1ff0c9068989898988604051808673ffffffffffffffffffffffffffffffffffffffff1673ffffffffffffffffffffffffffffffffffffffff1681526020018581526020018473ffffffffffffffffffffffffffffffffffffffff1673ffffffffffffffffffffffffffffffffffffffff1681526020018381526020018281526020019550505050505060405180910390a350505050505050565b6002602052816000526040600020602052806000526040600020600091509150505481565b60008173ffffffffffffffffffffffffffffffffffffffff166370a08231336040518263ffffffff167c0100000000000000000000000000000000000000000000000000000000028152600401808273ffffffffffffffffffffffffffffffffffffffff1673ffffffffffffffffffffffffffffffffffffffff16815260200191505060206040518083038186803b15801561102257600080fd5b505afa158015611036573d6000803e3d6000fd5b505050506040513d602081101561104c57600080fd5b81019080805190602001909291905050509050919050565b61106c61115f565b151561107757600080fd5b600073ffffffffffffffffffffffffffffffffffffffff166000809054906101000a900473ffffffffffffffffffffffffffffffffffffffff1673ffffffffffffffffffffffffffffffffffffffff167f8be0079c531659141344cd1fd0a4f28419497f9722a3daafe3b4186f6b6457e060405160405180910390a360008060006101000a81548173ffffffffffffffffffffffffffffffffffffffff021916908373ffffffffffffffffffffffffffffffffffffffff160217905550565b60008060009054906101000a900473ffffffffffffffffffffffffffffffffffffffff16905090565b60008060009054906101000a900473ffffffffffffffffffffffffffffffffffffffff1673ffffffffffffffffffffffffffffffffffffffff163373ffffffffffffffffffffffffffffffffffffffff1614905090565b600073ffffffffffffffffffffffffffffffffffffffff168273ffffffffffffffffffffffffffffffffffffffff161415151561125b576040517f08c379a000000000000000000000000000000000000000000000000000000000815260040180806020018281038252601f8152602001807f616464726573732063616e6e6f7420626520746865203020616464726573730081525060200191505060405180910390fd5b80600160008473ffffffffffffffffffffffffffffffffffffffff1673ffffffffffffffffffffffffffffffffffffffff16815260200190815260200160002060003373ffffffffffffffffffffffffffffffffffffffff1673ffffffffffffffffffffffffffffffffffffffff168152602001908152602001600020541015151561134f576040517f08c379a00000000000000000000000000000000000000000000000000000000081526004018080602001828103825260128152602001807f6e6f7420656e6f7567682062616c616e6365000000000000000000000000000081525060200191505060405180910390fd5b6113de81600160008573ffffffffffffffffffffffffffffffffffffffff1673ffffffffffffffffffffffffffffffffffffffff16815260200190815260200160002060003373ffffffffffffffffffffffffffffffffffffffff1673ffffffffffffffffffffffffffffffffffffffff1681526020019081526020016000205461185a90919063ffffffff16565b600160008473ffffffffffffffffffffffffffffffffffffffff1673ffffffffffffffffffffffffffffffffffffffff16815260200190815260200160002060003373ffffffffffffffffffffffffffffffffffffffff1673ffffffffffffffffffffffffffffffffffffffff168152602001908152602001600020819055508173ffffffffffffffffffffffffffffffffffffffff1663a9059cbb33836040518363ffffffff167c0100000000000000000000000000000000000000000000000000000000028152600401808373ffffffffffffffffffffffffffffffffffffffff1673ffffffffffffffffffffffffffffffffffffffff16815260200182815260200192505050602060405180830381600087803b15801561150157600080fd5b505af1158015611515573d6000803e3d6000fd5b505050506040513d602081101561152b57600080fd5b810190808051906020019092919050505015156115b0576040517f08c379a00000000000000000000000000000000000000000000000000000000081526004018080602001828103825260158152602001807f4552433230207472616e73666572206661696c6564000000000000000000000081525060200191505060405180910390fd5b3373ffffffffffffffffffffffffffffffffffffffff168273ffffffffffffffffffffffffffffffffffffffff167f46ae78bc7b198b8b534ca0070d125569ac5f955976841c4343223079f3abf0de836040518082815260200191505060405180910390a35050565b6000600160008373ffffffffffffffffffffffffffffffffffffffff1673ffffffffffffffffffffffffffffffffffffffff16815260200190815260200160002060003373ffffffffffffffffffffffffffffffffffffffff1673ffffffffffffffffffffffffffffffffffffffff168152602001908152602001600020549050919050565b6001602052816000526040600020602052806000526040600020600091509150505481565b61175334600160008073ffffffffffffffffffffffffffffffffffffffff1673ffffffffffffffffffffffffffffffffffffffff16815260200190815260200160002060003373ffffffffffffffffffffffffffffffffffffffff1673ffffffffffffffffffffffffffffffffffffffff1681526020019081526020016000205461187c90919063ffffffff16565b600160008073ffffffffffffffffffffffffffffffffffffffff1673ffffffffffffffffffffffffffffffffffffffff16815260200190815260200160002060003373ffffffffffffffffffffffffffffffffffffffff1673ffffffffffffffffffffffffffffffffffffffff168152602001908152602001600020819055503373ffffffffffffffffffffffffffffffffffffffff16600073ffffffffffffffffffffffffffffffffffffffff167fb024cc5591038c18f7e2348d474092b453a32212dd1ebcc0370c4ac2e42cce43346040518082815260200191505060405180910390a3565b61184361115f565b151561184e57600080fd5b6118578161189d565b50565b600082821115151561186b57600080fd5b600082840390508091505092915050565b600080828401905083811015151561189357600080fd5b8091505092915050565b600073ffffffffffffffffffffffffffffffffffffffff168173ffffffffffffffffffffffffffffffffffffffff16141515156118d957600080fd5b8073ffffffffffffffffffffffffffffffffffffffff166000809054906101000a900473ffffffffffffffffffffffffffffffffffffffff1673ffffffffffffffffffffffffffffffffffffffff167f8be0079c531659141344cd1fd0a4f28419497f9722a3daafe3b4186f6b6457e060405160405180910390a3806000806101000a81548173ffffffffffffffffffffffffffffffffffffffff021916908373ffffffffffffffffffffffffffffffffffffffff1602179055505056fea165627a7a72305820af9a38481fcdcf43a342e94237e6cb7fc0314a03f23a5945f6d4138472c1f4450029",
  "source": "pragma solidity 0.5.2;\r\n\r\nimport \"./SafeMath.sol\";\r\nimport \"./IERC20.sol\";\r\nimport \"./Ownable.sol\";\r\n\r\n\r\ncontract  MyExchange is Ownable {\r\n\r\n    using SafeMath for uint256;\r\n\r\n    event LogDepositToken(address indexed _token, address indexed _user, uint256 _amount);\r\n    event LogWithdrawToken(address indexed _token, address indexed _user, uint256 _amount);\r\n    event LogOrder(address indexed _sender, address _tokenMake, uint256 _amountMake, address _tokenTake, uint256 _amountTake, uint256 indexed _expirationBlock, uint256 _nonce);\r\n\r\n    mapping (address => mapping (address => uint256) ) public userBalanceForToken;\r\n    mapping (address => mapping (bytes32 => uint256) ) public userOrders;\r\n\r\n    constructor() public {\r\n    }\r\n\r\n    /// Function to receive ETH\r\n    /// Allows the contract to manage the Ether the user deposits\r\n    /// Triggers deposit event.\r\n    function deposit() external payable {\r\n        userBalanceForToken[address(0)][msg.sender] = userBalanceForToken[address(0)][msg.sender].add(msg.value);\r\n        emit LogDepositToken(address(0), msg.sender, msg.value);\r\n    }\r\n\r\n    /// Function to withdraw ETH\r\n    /// msg.sender withdraws _amount ETH from the contract\r\n    /// triggers withdraw event\r\n    function withdraw(uint256 _amount) external {\r\n        require(userBalanceForToken[address(0)][msg.sender] >= _amount, \"not enough balance\");\r\n        userBalanceForToken[address(0)][msg.sender] = userBalanceForToken[address(0)][msg.sender].sub(_amount);\r\n        msg.sender.transfer(_amount);\r\n        emit LogWithdrawToken(address(0), msg.sender, _amount);\r\n    }\r\n\r\n    /// Function to send _amount of specific _token to contract\r\n    /// This allows the contract to spend _amount tokens on your behalf.\r\n    /// msg.sender has to call approve on this contract first.\r\n    /// triggers DepositToken event.\r\n    function depositToken(address _token, uint256 _amount) external {\r\n        require(_token != address(0), \"address cannot be the 0 address\");\r\n        require(IERC20(_token).allowance(msg.sender, address(this)) >= _amount, \"not enough allowance\");\r\n        require(IERC20(_token).transferFrom(msg.sender, address(this), _amount), \"ERC20 transfer failed\");\r\n        userBalanceForToken[_token][msg.sender] = userBalanceForToken[_token][msg.sender].add(_amount);\r\n        emit LogDepositToken(_token, msg.sender, _amount);\r\n    }\r\n\r\n    /// function to withdraw _amount of specific _token from contract\r\n    /// triggers WithdrawToken event\r\n    function withdrawToken(address _token, uint256 _amount) external {\r\n        require(_token != address(0), \"address cannot be the 0 address\");\r\n        require(userBalanceForToken[_token][msg.sender] >= _amount, \"not enough balance\");\r\n        userBalanceForToken[_token][msg.sender] = userBalanceForToken[_token][msg.sender].sub(_amount);\r\n        require(IERC20(_token).transfer(msg.sender, _amount), \"ERC20 transfer failed\");\r\n        emit LogWithdrawToken(_token, msg.sender, _amount);\r\n    }\r\n\r\n    /// function to allow users to place orders inside the contract\r\n    /// parameters:\r\n        /// _tokenMake: address of the token the user (maker of the order) wants to get from the trade.\r\n        /// _amountMake: amount of _tokenMake the maker wants to get from the trade.\r\n        /// _tokenTake: address of the token the user (maker of the order) gives in exchgange for the tokenMake.\r\n        /// _amountTake: amount of  _tokenTake the user (maker of the order) will give.\r\n        /// _expirationBlock: block number from which this order will not be acceptable anymore.\r\n        /// _nonce: for the sake of allowing users to place the exact same orders, this number is added.\r\n    /// how it works:\r\n        /// The contract will store for each user, the hash of the orders they have placed, it will also store\r\n        /// the amount of the order that has been filled.\r\n    function placeOrder(address _tokenMake, uint256 _amountMake, address _tokenTake, uint256 _amountTake, uint256 _expirationBlock, uint256 _nonce) external {\r\n        bytes32 orderHash = sha256(abi.encode(_tokenMake, _amountMake, _tokenTake, _amountTake, _expirationBlock, _nonce));\r\n        userOrders[msg.sender][orderHash] = 0;\r\n        emit LogOrder(msg.sender, _tokenMake, _amountMake, _tokenTake, _amountTake, _expirationBlock, _nonce);\r\n    }\r\n\r\n    /// function to get the amount of tokens of _token type a user has\r\n    function balanceOf(address _token) public view returns (uint256) {\r\n        return (IERC20(_token).balanceOf(msg.sender));\r\n    }\r\n\r\n    /// function to get the amount of tokens of _token type msg.sender has inside the contract\r\n    function getUserBalanceForToken(address _token) public view returns (uint256) {\r\n        return userBalanceForToken[_token][msg.sender];\r\n    }\r\n}\r\n",
  "sourcePath": "C:/Users/Madness/Desktop/TFG/exchange/exchange/contracts/MyExchange.sol",
  "compiler": {
    "name": "solc",
    "version": "0.5.2+commit.1df8f40c.Emscripten.clang"
  },
  "schemaVersion": "3.0.2",
  "updatedAt": "2019-04-18T16:14:21.850Z",
  "devdoc": {
    "methods": {
      "isOwner()": {
        "return": "true if `msg.sender` is the owner of the contract.\r"
      },
      "owner()": {
        "return": "the address of the owner.\r"
      },
      "renounceOwnership()": {
        "details": "Allows the current owner to relinquish control of the contract.\r"
      },
      "transferOwnership(address)": {
        "details": "Allows the current owner to transfer control of the contract to a newOwner.\r",
        "params": {
          "newOwner": "The address to transfer ownership to.\r"
        }
      }
    }
  },
  "userdoc": {
    "methods": {
      "balanceOf(address)": {
        "notice": "function to get the amount of tokens of _token type a user has"
      },
      "deposit()": {
        "notice": "Triggers deposit event."
      },
      "depositToken(address,uint256)": {
        "notice": "triggers DepositToken event."
      },
      "getUserBalanceForToken(address)": {
        "notice": "function to get the amount of tokens of _token type msg.sender has inside the contract"
      },
      "placeOrder(address,uint256,address,uint256,uint256,uint256)": {
        "notice": "the amount of the order that has been filled."
      },
      "renounceOwnership()": {
        "notice": "Renouncing to ownership will leave the contract without an owner.\r It will not be possible to call the functions with the `onlyOwner`\r modifier anymore.\r"
      },
      "withdraw(uint256)": {
        "notice": "triggers withdraw event"
      },
      "withdrawToken(address,uint256)": {
        "notice": "triggers WithdrawToken event"
      }
    }
  }
}